:020000040800F2
:10000000E008002029020008FD130008051200087E
:10001000F9130008E3020008D725000800000000DB
:10002000000000000000000000000000111900089E
:100030002D110008000000008D140008291A000886
:10004000430200084302000843020008430200087C
:10005000430200084302000843020008430200086C
:10006000430200084302000843020008430200085C
:10007000430200084302000843020008430200084C
:1000800043020008430200084302000889060008F2
:10009000F903000843020008430200084302000875
:1000A000430200084302000843020008430200081C
:1000B00043020008291C000843020008430200080C
:1000C00043020008430200084302000843020008FC
:1000D00043020008F5210008D92200084302000865
:1000E00043020008430200084302000843020008DC
:1000F00043020008430200084302000843020008CC
:1001000043020008430200084302000843020008BB
:100110004302000843020008951D0008430200083E
:10012000430200084302000843020008430200089B
:10013000430200084302000843020008430200088B
:10014000430200084302000843020008430200087B
:10015000430200084302000843020008430200086B
:10016000430200084302000843020008430200085B
:10017000430200084302000843020008430200084B
:10018000430200084302000800F002F800F03CF8C7
:100190000AA090E8000C82448344AAF10107DA45E2
:1001A00001D100F031F8AFF2090EBAE80F0013F0F8
:1001B000010F18BFFB1A43F0010318471025000078
:1001C00030250000103A24BF78C878C1FAD8520709
:1001D00024BF30C830C144BF04680C6070470000C1
:1001E0000023002400250026103A28BF78C1FBD840
:1001F000520728BF30C148BF0B6070471FB502F0DF
:1002000060FA1FBD10B510BD00F031F81146FFF7C0
:10021000F5FF02F043FA00F04FF803B4FFF7F2FFE6
:1002200003BC00F057F80000094880470948004720
:10023000FEE7FEE7FEE7FEE7FEE7FEE7FEE7FEE796
:10024000FEE7FEE704480549054A064B70470000F3
:10025000311A000889010008E0020020E0080020AF
:10026000E0040020E00400207047704770477546A6
:1002700000F02CF8AE4605006946534620F0070012
:10028000854618B020B5FFF7DDFFBDE820404FF0F0
:1002900000064FF000074FF000084FF0000B21F070
:1002A0000701AC46ACE8C009ACE8C009ACE8C0093D
:1002B000ACE8C0098D46704710B50446AFF3008026
:1002C0002046BDE81040FFF7A8BF00000048704777
:1002D0008002002001491820ABBEFEE72600020084
:1002E000704700BFFEE7000000B58BB00121084653
:1002F00001F0CEF80121480601F0DAF809220C21BC
:100300003B4800F05CFF09220B21394800F057FF01
:100310004FF4C050029002208DF80C0002A934481E
:1003200000F005FF14208DF8040002208DF8050070
:1003300001208DF806008DF8070001A801F060F893
:1003400013208DF8040001208DF805008DF80600BB
:100350008DF8070001A801F053F8264800F0FAF9DB
:1003600008A800F032FC00208DF826008DF8270048
:100370008DF828008DF829008DF82A0001208DF8CD
:100380002B0000208DF822008DF8230008208DF826
:10039000240003208DF82500ADF8200008A9154899
:1003A00000F011FB00208DF81A008DF81B000120D1
:1003B0008DF81C000020ADF81000ADF81200ADF86B
:1003C0001400ADF81600ADF8180001208DF81D00DE
:1003D00004A800F0DBF901220221064800F0EAFA45
:1003E00001221146034800F0E5FA0BB000BD000001
:1003F000000002400064004000B585B002219A4828
:1004000000F048FA002848D00221974800F04EF941
:100410006A460021944800F060FB9DF8080000281F
:100420003BD19DF808000028FAD19DF80A00082861
:10043000F6D100981B2831D19DF80C009DF80B10C7
:1004400040EA012000B2894908809DF80E109DF80D
:100450000D0041EA002000B2854908809DF80F0098
:1004600001069DF8100041EA00419DF8110041EAA3
:1004700000209DF8121008437E4908607B480088E0
:100480007D49C8807A48008888807A4890ED000AC3
:10049000B8EEC00A084680ED000AE3E000982B2879
:1004A00032D19DF80C009DF80B1040EA012000B2FB
:1004B0006E4948809DF80E109DF80D0041EA00201D
:1004C00000B26B4948809DF80F0001069DF81000AE
:1004D00041EA00419DF8110041EA00209DF8121008
:1004E000084364494860614841886348C183604863
:1004F0004188614881835F4890ED010AB8EEC00AE7
:100500005D4880ED060AADE000983B2822D19DF8B9
:100510000C009DF80B1040EA012000B2534988807E
:100520009DF80E109DF80D0041EA002000B25049E0
:1005300088809DF80F0001069DF8100041EA0041F7
:100540009DF8110041EA00209DF812100843494926
:10055000886087E000984B2822D19DF80C009DF818
:100560000B1040EA012000B24049C8809DF80E10EF
:100570009DF80D0041EA002000B23D49C8809DF879
:100580000F0001069DF8100041EA00419DF811009E
:1005900041EA00209DF8121008433649C86061E026
:1005A00000981F2805D1012034490870324908728B
:1005B00058E000982F2807D10120304948700121C8
:1005C0002D4880F820104DE000983F2803D10120ED
:1005D0002A49887046E000984F2803D10120274916
:1005E000C8703FE000981C280FD19DF80B002449EB
:1005F00008709DF80C0023490870214800781E49B6
:1006000048722048007888722CE000982C2812D17B
:100610009DF80B001A4948709DF80C001949487064
:1006200017484178144880F821101648417812483C
:1006300080F8221016E000983C2808D19DF80B00A5
:100640000F4988709DF80C000E4988700AE00098E8
:100650004C2807D19DF80B000949C8709DF80C0083
:100660000849C87005B000BD006400403600002095
:100670003E000020B0000020500200204600002074
:100680004A0000204E00002010B50121054800F06E
:1006900001F930B10121034800F008F801200249B6
:1006A000087010BD0064004034000020B1F5007FE8
:1006B0003AD00FDC202928D006DC01291CD00429DF
:1006C0001DD0082940D11DE0402921D0B1F5807FFF
:1006D0003AD126E0B1F5004F31D006DCB1F5806F9C
:1006E00025D0B1F5006F2FD124E0B1F5803F12D0B5
:1006F000B1F5003F28D111E0154A826025E00822BB
:10070000C26022E01022C2601FE0082202611CE0E9
:100710001022026119E00822426016E010224260B5
:1007200013E00422426010E0042242600DE0042243
:1007300042600AE0002282610422426005E0002259
:1007400082610422426000E000BF00BF70470000E9
:100750000101010010B504460B48844209D1012172
:10076000480600F0B5FE00214FF0007000F0B0FE2A
:1007700008E00121880600F0ABFE00214FF0806008
:1007800000F0A6FE10BD00000064004010B500217E
:10079000837A012202FA03F13D4A126842F0010213
:1007A0003B4B1A603A4A1C3212688A43384B1C335E
:1007B0001A60027BCAB9364A0C3212688A43344B3B
:1007C0000C331A604288C38842EA0343304A4032FD
:1007D000847A42F834300288838842EA03432C4A00
:1007E0004032847A02EBC4025360027B012A19D1A1
:1007F000274A0C3212680A43254B0C331A60428890
:10080000038842EA0343224A4032847A42F8343071
:10081000C288838842EA03431D4A4032847A02EB4D
:10082000C4025360C27A3AB9194A121D12688A4347
:10083000174B1B1D1A6006E0154A121D12680A4369
:10084000134B1B1D1A60028932B9114A1432126807
:100850008A430F4B14331A600289012A06D10C4ACD
:10086000143212680A430A4B14331A60427B012A7D
:1008700006D1074A1C3212680A43054B1C331A6022
:10088000034A126822F00102014B1A6010BD0000F9
:100890000066004070B504460D4600266069284099
:1008A000002871D0B5F5807F5CD010DC082D35D0E4
:1008B00006DC012D20D0022D24D0042D72D127E09A
:1008C000102D31D0202D35D0402D6BD138E0B5F52D
:1008D000004F60D009DCB5F5007F49D0B5F5806FD9
:1008E0004CD0B5F5006F5DD14FE0B5F5803F2DD010
:1008F000B5F5003F56D12FE0A0682D4900F058FA19
:10090000064651E0E068032100F052FA06464BE04B
:10091000E068082100F04CFA064645E0E068102146
:1009200000F046FA06463FE02069032100F040FA55
:10093000064639E02069082100F03AFA064633E01D
:100940002069102100F034FA06462DE06068082185
:1009500000F02EFA064627E06068102100F028FA21
:10096000064621E0A069012100F022FA06461BE0BC
:10097000A069022100F01CFA064615E0A0690421D6
:1009800000F016FA06460FE00FE0A069702100F0B3
:100990000FFA064608E06068042100F009FA0646EE
:1009A00002E0FFE7002600BF00E00026304670BDF1
:1009B000010101001AB143690B43436102E043693D
:1009C0008B434361704730B5024600200023146812
:1009D00024F002041460146844F00104146000E080
:1009E0005B1C546804F001041CB94FF6FF74A34269
:1009F000F6D1546804F001040CB900206CE08C7945
:100A0000012C04D1146844F08004146003E01468DD
:100A100024F080041460CC79012C04D1146844F0D3
:100A20004004146003E0146824F0400414600C7A5D
:100A3000012C04D1146844F02004146003E014680D
:100A400024F0200414604C7A012C04D1146844F082
:100A50001004146003E0146824F0100414608C7A0D
:100A6000012C04D1146844F00804146003E01468F5
:100A700024F008041460CC7A012C04D1146844F0EA
:100A80000404146003E0146824F0040414608C78F7
:100A9000A407CD7844EA05640D7944EA05444D790C
:100AA00044EA05540D886D1E2C43D461146824F06B
:100AB00001041460002300E05B1C546804F001048E
:100AC0001CB14FF6FF74A342F6D1546804F0010440
:100AD0000CB1002000E0012030BD10B500F5D87346
:100AE00003EB01131B6803F004031372137A53B969
:100AF00000F5D87303EB01131B6840F2FF7404EA9E
:100B00005353136009E000F5D87303EB01131B681E
:100B10006FF0604404EAD303536000F5D87303EB2D
:100B200001131B6803F00203537200F5D87303EB43
:100B300001135B6803F00F03937200F5D87303EBA6
:100B400001135B681B0AD37400F5D87303EB011320
:100B50009B68D37200F5D87303EB01139B681C0AE2
:100B6000147300F5D87303EB01139B681C0C5473CA
:100B700000F5D87303EB01139B681B0E937300F50C
:100B8000D87303EB0113DB68D37300F5D87303EB61
:100B90000113DB681C0A147400F5D87303EB01130E
:100BA000DB681C0C547400F5D87303EB0113DB688D
:100BB0001B0E937421B9C36843F02003C36003E0A4
:100BC000036943F02003036110BD00218171C171ED
:100BD000017241728172C1728170C1700321017111
:100BE0000221417101210180704710B502460020A9
:100BF000936803F08063B3F1806F00D110E09368D5
:100C000003F00063B3F1006F01D1012008E09368A5
:100C100003F08053B3F1805F01D1022000E0042093
:100C2000042874D002F5C07303EB00131B6803F0B3
:100C3000010402F5C07303EB00131C600B7A7BB94F
:100C40004B7A0C8843EA445302F5C07404EB001459
:100C50002468234302F5C07404EB0014236010E001
:100C60000B7A4C6843EAC4034C7A234302F5C07400
:100C700004EB00142468234302F5C07404EB001451
:100C800023608B7A03F00F038B7202F5C07303EBC2
:100C900000135B6823F00F0402F5C07303EB00132D
:100CA0005C6002F5C07303EB00135B688C7A23432E
:100CB00002F5C07404EB001463608B7B1C064B7B55
:100CC00044EA03440B7B44EA0323CC7A234302F532
:100CD000C07404EB0014A3608B7C1C064B7C44EABC
:100CE00003440B7C44EA0323CC7B234302F5C0740A
:100CF00004EB0014E36002F5C07303EB00131B6800
:100D000043F0010402F5C07303EB00131C6010BD37
:100D100010B50246002321B1012907D002290FD1C5
:100D200009E090681D4C00EA04030BE090681C4C3D
:100D300000EA040306E090681A4C00EA040301E0AC
:100D4000002300BF00BF184C181BA34216D007DCBD
:100D500083B16FF08060184470B1022818D111E09F
:100D6000B0F5007F10D0114C204448B1B0F5003FE1
:100D70000ED10BE002230DE000230BE0002309E07D
:100D8000002307E0012305E0012303E0012301E044
:100D9000002300BF00BFD8B210BD00000300000454
:100DA0000003000800000310000100080001FFF725
:100DB0000246002002EA01030BB1012000E00020FE
:100DC000704700003A490A780978491C384B197075
:100DD000384988540978552903D000211A461170E2
:100DE0007047334909780B2900DAF9E73149497826
:100DF00050390A2956D2DFE801F0050D151D252DC1
:100E0000353D454D2C492B4A921C13680B605268A6
:100E10004A6047E02949274A921C13680B605268D0
:100E20004A603FE02649234A921C13680B605268CF
:100E30004A6037E023491F4A921C13680B605268CE
:100E40004A602FE020491B4A921C13680B605268CD
:100E50004A6027E01D49174A921C13680B605268CC
:100E60004A601FE01A49134A921C13680B605268CB
:100E70004A6017E017490F4A921C13680B605268CA
:100E80004A600FE014490B4A921C13680B605268C9
:100E90004A6007E01149074A921C13680B605268C8
:100EA0004A6000BF00BF0021014A117000BF97E7F0
:100EB000A4000020C0000020540000205C0000209E
:100EC000640000206C000020740000207C000020E2
:100ED000840000208C000020940000209C00002052
:100EE0000246094B9A4201D2084801E006481038F0
:100EF00001F000531BB1064B0B40C36002E0044BF2
:100F00000B408360704700001064024000600240A4
:100F10007D0F7D0F21B1026842F00102026003E003
:100F2000026822F00102026070470000016821F0AF
:100F3000010101600021016041608160C1600161C7
:100F4000212141614A49884204D13D21484A103A51
:100F500091608CE046491831884205D14FF47461A4
:100F6000434A103A916082E041493031884205D1CC
:100F70004FF474113E4A103A916078E03C49483190
:100F8000884205D14FF07461394A103A91606EE0A1
:100F900037496031884204D13649354A103AD16028
:100FA00065E033497831884204D13349304A103AF8
:100FB000D1605CE02E499031884204D12F492C4AFF
:100FC000103AD16053E02A49A831884205D14FF048
:100FD0003D51274A103AD16049E02949884204D15D
:100FE0003D21274A083A116041E0254918318842DD
:100FF00005D14FF47461224A083A116037E0204964
:101000003031884205D14FF474111D4A083A1160FD
:101010002DE01B494831884205D14FF07461184AD0
:10102000083A116023E016496031884204D1114921
:10103000134A121F11601AE011497831884204D115
:101040000D490F4A121F116011E00D49903188427D
:1010500004D10A490A4A121F116008E00849A83160
:10106000884204D14FF03D51054A121F116070476C
:10107000106002403D000020400F002000003D2095
:101080001064024021B1026842F48022026003E051
:10109000026822F480220260704722B1036843F4A0
:1010A0000023036003E0036823F40023036001616D
:1010B00070470146486880B27047014600200A68C0
:1010C00002F400220AB1012000E000207047000075
:1010D00010B500220268134B1A40CC680B682343FA
:1010E0004C6923438C692343CC6923430C6A234313
:1010F0004C6A23438C6A23434C6B23438C6B2343FE
:101100001A430260426922F00702D1E90B342343FB
:101110001A4342610B6943604B6883608B68C3600C
:1011200010BD00003F801CF0416070477047F0B573
:101130000A4600210023002400BF3DE0012505FAF6
:1011400001F3156805EA03049C4234D105684F0099
:101150000326BE40B543056015794E00B5400668CC
:10116000354305601579012D02D01579022D16D170
:1011700085684F000326BE40B543856055794E0013
:10118000B540866835438560456801268E40B54385
:101190004560456896798E40B6B235434560C5686E
:1011A0004F000326BE40B543C560D5794E00B5401B
:1011B000C6683543C560491C1029BFD3F0BDF0B5E2
:1011C000002300244D07ED0E02FA05F3CE1000F1C6
:1011D000200555F826504E07F70E0F26BE40B543A2
:1011E000CF1000F1200646F82750CE1000F1200560
:1011F00055F8265045EA0304CE1000F1200545F8C5
:101200002640F0BD00BFFEE730B585B0002440F2B7
:1012100001100090019000208DF808008DF8090061
:1012200006208DF80A0000208DF80B0024218DF88F
:101230000C1000218DF80D1010218DF80E100021DA
:101240008DF80F1001218DF8101069460C48FFF73A
:10125000CCFC054600BF01E0601C84B2294608486A
:10126000FFF756FD18B940F6FF708442F4DB40F6F4
:10127000FF70844202DB012005B030BD0020FBE797
:101280000064004070B586B00446002540F20110AD
:101290000190029000208DF80C008DF80D000620C2
:1012A0008DF80E0000208DF80F0028218DF8101009
:1012B00000218DF811108DF81210210A8DF81310ED
:1012C0008DF8144001A90D48FFF78FFC064600BFBA
:1012D00001E0681C85B231460848FFF719FD18B9CE
:1012E00040F6FF708542F4DB40F6FF70854202DB7A
:1012F000012006B070BD0020FBE700000064004044
:1013000030B585B000244FF481700090019000202A
:101310008DF808008DF8090006208DF80A000020DD
:101320008DF80B0024218DF80C1000218DF80D1084
:1013300010218DF80E1000218DF80F1001218DF86D
:10134000101069460C48FFF750FC054600BF01E04D
:10135000601C84B229460848FFF7DAFC18B940F649
:10136000FF708442F4DB40F6FF70844202DB012010
:1013700005B030BD0020FBE70064004070B586B0CA
:10138000044600254FF481700190029000208DF8F2
:101390000C008DF80D0006208DF80E0000208DF851
:1013A0000F0028218DF8101000218DF811108DF8F4
:1013B0001210210A8DF813108DF8144001A90D4860
:1013C000FFF713FC064600BF01E0681C85B23146FA
:1013D0000848FFF79DFC18B940F6FF708542F4DB22
:1013E00040F6FF70854202DB012006B070BD002090
:1013F000FBE700000064004000BFFEE7704700000C
:1014000070B5002100230F22C4781CB3174C246848
:1014100004F4E064C4F5E064C4F30721C1F10404FA
:10142000E3B20A4144789C40E1B2847814402143FD
:101430000C07210E0E4C05786155047804F01F0549
:101440000124AC4005786D11AD0005F1E025C5F82B
:10145000004109E0047804F01F050124AC40054D6B
:101460000678761145F8264070BD00000CED00E0CE
:1014700000E400E080E100E002490143024A11601B
:10148000704700000000FA050CED00E07047000016
:1014900029B1064A12680243044B1A6004E0034A69
:1014A00012688243014B1A607047000030380240D6
:1014B00029B1064A12680243044B1A6004E0034A49
:1014C00012688243014B1A607047000040380240A6
:1014D00029B1064A12680243044B1A6004E0034A29
:1014E00012688243014B1A607047000020380240A6
:1014F00029B1064A12680243044B1A6004E0034A09
:1015000012688243014B1A60704700004438024061
:1015100029B1064A12680243044B1A6004E0034AE8
:1015200012688243014B1A60704700002438024061
:10153000F0B5002100220024022500260223324FAC
:101540003F6807F00C0121B1042905D0082937D1E3
:1015500005E02E4F076036E02D4F076033E02A4F3D
:101560003F1F3F68C7F38056274F3F1F3F6807F074
:101570003F036EB1264FB7FBF3F7DFF88CC0ACF139
:10158000040CDCF800C0CCF3881C07FB0CF40CE066
:101590001E4FB7FBF3F7DFF870C0ACF1040CDCF8BA
:1015A00000C0CCF3881C07FB0CF4174F3F1F3F68AB
:1015B000C7F301477F1C7D00B4FBF5F7076002E02D
:1015C000124F076000BF00BF0F4F3F6807F0F001E8
:1015D0000909104F7A5C0768D74047600A4F3F6897
:1015E00007F4E051890A0B4F7A5C4768D74087605F
:1015F000054F3F6807F46041490B064F7A5C476826
:10160000D740C760F0BD0000083802400024F40055
:1016100000127A000000002070B590B004460E461B
:10162000154601214B48FFF733FF01211020FFF73A
:101630005FFF01211020FFF76BFF00211020FFF753
:1016400067FF07220A214448FFF7B9FD4FF4806085
:101650000E9002208DF83C0000208DF83E00032003
:101660008DF83D0000208DF83F000EA93A48FFF7A5
:101670005EFD3A4800F078FE39480A900020ADF847
:101680002C00ADF82E004FF48060ADF8300004203F
:10169000ADF832000020ADF834000AA92F4800F060
:1016A0002BFF012240212D4800F054FE10212B4831
:1016B00000F02CFE012240F22441284800F0F6FE02
:1016C0000121264800F03AFE25208DF83C0002203A
:1016D0008DF83D0000208DF83E0001208DF83F0080
:1016E0000FA8FFF78DFE1F48FFF720FC4FF00060AA
:1016F00001901A48001D0290039400200490059563
:1017000006904FF4806007900020089009904FF4F5
:1017100080700A904FF440300B9000200C900D9098
:101720000E900F9001A90F48FFF7D2FC002231461E
:101730000C48FFF7B2FC01210A48FFF7A3FC002187
:101740000848FFF7E7FB01210648FFF7E3FB10B06D
:1017500070BD000001004000000002400010014088
:10176000A08601004064024010B524220249A1F184
:101770002400FFF751FF10BD2C020020427883782F
:1017800042EA0322C2F30A020A808278D210C378A6
:1017900042EA4312C2F30A024A80C27892110379E4
:1017A00042EA8302437942EA8322C2F30A028A8030
:1017B00042795210837942EAC312C2F30A02CA8004
:1017C000027B437B42EA0322C2F30A020A81427B84
:1017D000D210837B42EA4312C2F30A024A81827921
:1017E0001211C37942EA0312C2F30A02474B1A806C
:1017F000C279D211037A42EA4302437A42EA43228F
:10180000C2F30A02414B5A80427A9210837A42EA2A
:101810008312C2F30A023D4B9A80827A5211C37A34
:1018200042EAC302394BDA801A461288B2F5806F59
:1018300002DA00228A8101E002228A81334A528838
:10184000B2F5167F04DA002301F10C02CB8112E01D
:101850002E4A5288B2F5167F09DD2C4A5288B2F51D
:10186000AF6F04DA012301F10C02CB8103E0022304
:1018700001F10C02CB81254A9288B2F5167F04DA79
:10188000002301F10C020B8212E0204A9288B2F58B
:10189000167F09DD1D4A9288B2F5AF6F04DA012385
:1018A00001F10C020B8203E0022301F10C020B8216
:1018B000164AD288B2F5806F04DA002301F10C02D7
:1018C0004B8203E0022301F10C024B820A88A2F54D
:1018D000806212B20A804A88A2F5806212B24A80FF
:1018E0008A88A2F5806212B28A80CA88A2F58062D4
:1018F00012B2CA800A89A2F5806212B20A814A89AC
:10190000A2F5806212B24A8170470000A600002052
:10191000704700000CB5002001900090344800682A
:1019200040F480303249086000BF3148006800F45C
:10193000003000900198401C0190009818B901985F
:10194000B0F5A04FF1D12A48006800F4003010B182
:101950000120009001E0002000900098012846D16D
:1019600023484030006840F08050214940310860F1
:101970002048006840F440401E4908601C48083078
:1019800000681B49083108600846006840F40040C0
:1019900008600846006840F4A05008601648091F17
:1019A0000860081F006840F08070091F086000BFD1
:1019B0000F48006800F000700028F9D040F2057070
:1019C0000E4908600A480830006820F00300084902
:1019D000083108600846006840F00200086000BF57
:1019E00003480830006800F00C000828F8D10CBD4E
:1019F000003802400070004008544007003C02409C
:101A0000042808D14FF0E021096941F004014FF0AA
:101A1000E022116107E04FF0E021096921F00401A3
:101A20004FF0E0221161704710B500F0D7FB10BDF8
:101A300010B51548006840F4700013490860134859
:101A4000006840F001001149086000200F4908318A
:101A500008600E4800680E4908400C4908600D48AF
:101A6000091D0860081F006820F48020091F086015
:101A7000002006490C310860FFF74CFF4FF0006072
:101A800001498039086010BD88ED00E0003802404F
:101A9000FFFFF6FE1030002410B5B42000F09EFDCC
:101AA0004FF4A060FFF7E8FCFFF75EFE00F0F2FDE8
:101AB0000B490860FEF718FC41F6583000F0A8FD0D
:101AC000FFF7A2FBFFF71CFC532140F2E73000F0C8
:101AD000F3F8532140F2E73000F0A4F910BD000004
:101AE000140000207047000010B541480068B0F9AC
:101AF000020000EE900AF8EEE00AB0EE600A9FEDF8
:101B00003D2ADFED3D1A9FED3D1ADFED3D0A00F065
:101B1000C9FDBDEEC00A10EE100A01B239480182BB
:101B200033480068B0F9040000EE900AF8EEE00ACD
:101B3000B0EE600A9FED2F2ADFED2F1A9FED2F1ACE
:101B4000DFED2F0A00F0AEFDBDEEC00A10EE100A68
:101B500001B22C48018526480068B0F9020000EE69
:101B6000900AF8EEE00AB0EE600A9FED272ADFED5A
:101B7000271A9FED221ADFED220A00F093FDBDEE39
:101B8000C00A234880ED000A19480068B0F9040033
:101B900000EE900AF8EEE00AB0EE600A9FED1A2A15
:101BA000DFED1A1A9FED151ADFED150A00F07AFD28
:101BB000BDEEC00A174880ED000A0D480068808914
:101BC00050B91348008800B2FFF75CFB1148008849
:101BD00000B2FFF7D3FB09E00D48008800B2FFF721
:101BE00051FB0B48008800B2FFF7C8FB10BD000096
:101BF000140000200080BB450080BBC500C04344EA
:101C0000000044C45002002000803B4500803BC5DA
:101C10001C0000202000002070477047704770476C
:101C2000704770477047704710B50121204800F099
:101C300019FA00283BD001211D4800F03BF91D484E
:101C40000088401C1B490880FFF74CFF194800889A
:101C50000A2190FBF1F201FB120008B9FFF744FFE3
:101C600014480088142190FBF1F201FB120008B91E
:101C7000FFF7D4FF0F480088642190FBF1F201FBCD
:101C8000120008B9FFF7C8FF0A4800884FF47A71BC
:101C900090FBF1F201FB120008B9FFF7BEFF054807
:101CA0000088B0F57A7F02D100200249088010BD7B
:101CB000000400402E00002030B58BB005460C46D5
:101CC00001210220FFF7F4FB01210220FFF7E0FBD6
:101CD000022205212D48FFF772FA01210220FFF7A9
:101CE000F7FB00210220FFF7F3FB1D208DF8140005
:101CF00001208DF8150000208DF8160001208DF8C8
:101D0000170005A8FFF77CFB681E0990601E80B2D3
:101D1000ADF820000020ADF82200ADF82800012227
:101D200011461B4800F0AFF908A9194800F014FA51
:101D30002020069002208DF81C0003208DF81D0045
:101D400000208DF81E0002208DF81F0006A90F4804
:101D5000FFF7EDF96020ADF800000120ADF80200BA
:101D60000020ADF80C006946094800F095F90821FB
:101D7000074800F0E3F90121054800F08FF8012140
:101D8000034800F09AF80BB030BD00000004024098
:101D90000004004010B50121204800F063F900283C
:101DA0003BD001211D4800F085F81D480088401CEB
:101DB0001B490880FFF733FF194800880A2190FB70
:101DC000F1F201FB120008B9FFF72AFF144800885E
:101DD000142190FBF1F201FB120008B9FFF723FF79
:101DE0000F480088642190FBF1F201FB120008B952
:101DF000FFF717FF0A4800884FF47A7190FBF1F261
:101E000001FB120008B9FFF70DFF05480088B0F587
:101E10007A7F02D100200249088010BD00100040E6
:101E20002C0000207FB505460C4601211020FFF74D
:101E30003FFB01211020FFF74BFB00211020FFF793
:101E400047FB154800F046F8681E0290601E80B2FD
:101E5000ADF804000020ADF80600ADF80C0001A9B3
:101E60000D4800F079F9012211460B4800F00BF9FA
:101E700036208DF8000003208DF8010000208DF839
:101E8000020001208DF803006846FFF7B9FA01212E
:101E9000014800F012F87FBD0010004021B1028817
:101EA00042F08002028004E002884FF67F731A40FD
:101EB00002807047CA430282704721B1028842F013
:101EC0000102028004E002884FF6FE731A4002808D
:101ED0007047000010B504465548844208D10121DE
:101EE0000846FFF715FB00210120FFF711FB9DE0DD
:101EF000B4F1804F08D101210846FFF7E9FA00212B
:101F00000120FFF7E5FA91E04A48844208D1012117
:101F10000220FFF7DDFA00210220FFF7D9FA85E061
:101F20004548844208D101210420FFF7D1FA00215D
:101F30000420FFF7CDFA79E04048844208D101211E
:101F40000820FFF7C5FA00210820FFF7C1FA6DE06D
:101F50003B48844208D101211020FFF7B9FA002143
:101F60001020FFF7B5FA61E03648844208D101211C
:101F70002020FFF7ADFA00212020FFF7A9FA55E055
:101F80003148844208D101210220FFF7C1FA002123
:101F90000220FFF7BDFA49E02C48844209D1012113
:101FA0000804FFF7B5FA00214FF48030FFF7B0FACC
:101FB0003CE02748844209D101214804FFF7A8FAF0
:101FC00000214FF40030FFF7A3FA2FE021488442AC
:101FD00009D101218804FFF79BFA00214FF48020EA
:101FE000FFF796FA22E01C48844208D101214020E4
:101FF000FFF76EFA00214020FFF76AFA16E0174853
:10200000844208D101218020FFF762FA002180205C
:10201000FFF75EFA0AE01248844207D101218015D9
:10202000FFF756FA0021A015FFF752FA10BD000085
:10203000000001400004004000080040000C004087
:102040000010004000140040000401400040014026
:10205000004401400048014000180040001C0040BE
:102060000020004030B50246002000230024158ADD
:1020700005EA0103958905EA010413B10CB10120B9
:1020800000E0002030BD1AB183890B43838102E058
:1020900083898B438381704770B50024002200231D
:1020A000058C4FF6EF7635400584028C8388048BCF
:1020B00048F6FF752C404FF6FF452C400D884FF633
:1020C000FF7606EA05252C434FF6DF752A408D89F9
:1020D00006EA05152A434D8806EA05152A43154DDB
:1020E000A84202D0144DA8421DD14FF67F752A4058
:1020F000CD894FF6FF7606EA05152A434FF6BF75E0
:102100002A408D8806EA05152A434FF6FF352B40F5
:102110004FF2FF752B400D8A06EA85052B434D8A49
:1021200006EA85052B43838004838D6885630284DA
:1021300070BD000000000140000401400A4600217B
:10214000018B4FF2FF7319404FF6FF7303EA02232E
:10215000194301837047000000220288184B9842FF
:102160000ED0184B98420BD0B0F1804F08D0164BD0
:10217000984205D0154B984202D0154B984204D195
:102180004FF68F731A404B881A43124B984207D070
:10219000114B984204D04FF6FF431A400B891A4363
:1021A00002804B68C3620B880385054B984202D0BE
:1021B000044B984201D18B7A0386012383827047B6
:1021C00000000140000401400004004000080040FD
:1021D000000C00400010004000140040044800685B
:1021E00020B103480068401E0149086070470000A4
:1021F0001000002010B540F22551314800F02CF9B4
:1022000018B12F4800F0E2F959E040F224412C487F
:1022100000F022F9002852D0294800F0D7F92948C7
:10222000FEF74BFF28BB00212648FEF773FE25482A
:10223000FEF73FFFC0F124002349088024212148F4
:10224000FEF772FF1F48006840F400201D49086037
:102250001E491C48FEF744FE01211A48FEF75AFEAB
:102260001948008819282AD119491A48FFF786FA0F
:1022700025E000211348FEF74DFE1248FEF719FF36
:10228000C0F124001049088024210E48FEF74CFFBD
:102290000C48006820F400200A4908600B490948EE
:1022A000FEF71EFE01210748FEF734FE06480088AF
:1022B000192804D1064907482430FFF75FFA10BDFA
:1022C0000010014040640240AE00002000003010C9
:1022D000F40100200802002010B540F225510A4800
:1022E00000F0BAF850B10849091D0988C8B2FEF7D4
:1022F00069FD40F22551044800F011F84FF458717F
:10230000014800F00CF810BD0044004001F40072D8
:10231000B2F5007F00D100BFCA430280704710B5FC
:102320000022002340F66A14A14200D100BF0A1225
:1023300001249440A3B2DC43048010BD21B1828902
:1023400042F40052828104E082894DF6FF731A4004
:10235000828170471AB1838A0B43838202E0838AA9
:102360008B4383827047000010B504463248844294
:1023700008D101211020FFF7CBF800211020FFF732
:10238000C7F857E02D48844209D101214804FFF7DE
:102390009FF800214FF40030FFF79AF84AE02848F0
:1023A000844209D101218804FFF792F800214FF4FB
:1023B0008020FFF78DF83DE02248844209D10121B9
:1023C000C804FFF785F800214FF40020FFF780F8DC
:1023D00030E01D48844209D101210805FFF778F853
:1023E00000214FF48010FFF773F823E01748844270
:1023F00008D101212020FFF78BF800212020FFF7D2
:1024000087F817E01248844209D101218807FFF7B5
:102410005FF800214FF08040FFF75AF80AE00D48BE
:10242000844207D101214005FFF752F800216005E1
:10243000FFF74EF810BD00000010014000440040BE
:1024400000480040004C0040005000400014014093
:1024500000780040007C004070B502460024002354
:102460000025002040F66A16B14200D100BFC1F33A
:10247000421501F01F03012606FA03F3012D02D1D4
:102480009689334006E0022D02D1168A334001E0DE
:10249000968A33400C12012606FA04F4168834405A
:1024A00013B10CB1012000E0002070BDF0B503466F
:1024B000002400260025002040F66A17B94200D10A
:1024C00000BF1846C1F3421401F01F06012707FAA6
:1024D00006F5012C01D10C3004E0022C01D11030A2
:1024E00000E014301AB107682F43076002E0076864
:1024F000AF430760F0BD00002DE9FF4705460E46DB
:102500000024A14600BFA046B08900B100BF2C8ABC
:1025100024F44054F08804432C82AC8941F20C60CE
:102520008443B08831890843718908430443AC81EE
:10253000AC8A24F44074B0890443AC826846FEF748
:10254000F7FF2048854202D01F48854202D1DDF8BE
:102550000C9001E0DDF80890A88900F4004040B13B
:1025600009EBC90000EB091031684900B0FBF1F735
:1025700007E009EBC90000EB091031688900B0FBE6
:10258000F1F76420B7FBF0F004012009642101FB9E
:102590001078A88900F4004040B1322000EBC80058
:1025A000B0FBF1F000F00700044308E0322000EB3C
:1025B00008106421B0FBF1F000F00F0004432C81FF
:1025C000BDE8FF87001001400014014001468888E3
:1025D000C0F30800704700BFFEE7000010B50446D6
:1025E0006FF00400FFF70CFAE11704EB5171C1F32F
:1025F000C701054A1170104600784FF47A7110FB3C
:1026000001F00249086010BD2400002028000020CD
:1026100070B504464FF4077094FBF0F0C6B24FF467
:10262000077094FBF0F100FB114085B205E04FF418
:10263000077000F009F8701EC6B2002EF7D115B170
:10264000284600F001F870BD0146114A12684A435D
:102650004FF0E0235A6100229A611A46126942F053
:1026600001021A6100BF4FF0E022106900F0010280
:102670001AB100F48032002AF5D04FF0E02212693E
:1026800022F001024FF0E0231A6100229A617047A4
:102690002800002000487047F4010020FFF7FCF9F3
:1026A00000BFFEE7F0EE402A32EEE00A32EE613A79
:1026B00020EE030A71EE603A80EE233A33EE210AEF
:1026C00070474FF04070E1EE100A7047EC260008AA
:1026D00000000020B0000000C40100089C27000892
:1026E000B000002030080000E001000800000000F9
:1026F00001020304010203040607080900000000A8
:1027000000000000000000000000000000000000C9
:1027100000000000000000000000000000000000B9
:1027200000000000000000000000000000000000A9
:102730000000000000000000000000000000000099
:102740000000000000000000000000000000000089
:102750000000000000000000000000000000000079
:102760000000000000000000000000000000000069
:102770000000000000000000000000000000000059
:102780000000000000000000000000000000000049
:0C2790000000000000000000000000003D
:040000050800018965
:00000001FF
