:020000040800F2
:100000002807002029020008150600080D06000830
:1000100011060008E302000857160008000000005F
:10002000000000000000000000000000290B000894
:100030003505000800000000A5060008410C000876
:10004000430200084302000843020008430200087C
:10005000430200084302000843020008430200086C
:10006000430200084302000843020008430200085C
:10007000430200084302000843020008430200084C
:10008000430200084302000843020008430200083C
:10009000430200084302000843020008430200082C
:1000A000430200084302000843020008430200081C
:1000B00043020008FD0C0008430200084302000848
:1000C00043020008430200084302000843020008FC
:1000D00043020008C9120008430200084302000856
:1000E00043020008430200084302000843020008DC
:1000F00043020008430200084302000843020008CC
:1001000043020008430200084302000843020008BB
:100110004302000843020008690E00084302000879
:10012000430200084302000843020008430200089B
:10013000430200084302000843020008430200088B
:10014000430200084302000843020008430200087B
:10015000430200084302000843020008430200086B
:10016000430200084302000843020008430200085B
:10017000430200084302000843020008430200084B
:10018000430200084302000800F002F800F03CF8C7
:100190000AA090E8000C82448344AAF10107DA45E2
:1001A00001D100F031F8AFF2090EBAE80F0013F0F8
:1001B000010F18BFFB1A43F001031847F0140000A9
:1001C00010150000103A24BF78C878C1FAD8520739
:1001D00024BF30C830C144BF04680C6070470000C1
:1001E0000023002400250026103A28BF78C1FBD840
:1001F000520728BF30C148BF0B6070471FB501F0E0
:100200004FFA1FBD10B510BD00F031F81146FFF7D1
:10021000F5FF01F041FA00F04FF803B4FFF7F2FFE9
:1002200003BC00F057F80000094880470948004720
:10023000FEE7FEE7FEE7FEE7FEE7FEE7FEE7FEE796
:10024000FEE7FEE704480549054A064B70470000F3
:10025000490C000889010008280100202807002017
:100260002803002028030020704770477047754618
:1002700000F02CF8AE4605006946534620F0070012
:10028000854618B020B5FFF7DDFFBDE820404FF0F0
:1002900000064FF000074FF000084FF0000B21F070
:1002A0000701AC46ACE8C009ACE8C009ACE8C0093D
:1002B000ACE8C0098D46704710B50446AFF3008026
:1002C0002046BDE81040FFF7A8BF00000048704777
:1002D000C800002001491820ABBEFEE7260002003E
:1002E000704700BFFEE700000246094B9A4201D268
:1002F000084801E00648103801F000531BB1064BD6
:100300000B40C36002E0044B0B4083607047000069
:1003100010640240006002407D0F7D0F21B1026831
:1003200042F00102026003E0026822F00102026072
:1003300070470000016821F00101016000210160A7
:1003400041608160C1600161212141614A49884267
:1003500004D13D21484A103A91608CE04649183159
:10036000884205D14FF47461434A103A916082E0AB
:1003700041493031884205D14FF474113E4A103A58
:10038000916078E03C494831884205D14FF0746172
:10039000394A103A91606EE037496031884204D1A1
:1003A0003649354A103AD16065E0334978318842A0
:1003B00004D13349304A103AD1605CE02E49903183
:1003C000884204D12F492C4A103AD16053E02A497F
:1003D000A831884205D14FF03D51274A103AD160EB
:1003E00049E02949884204D13D21274A083A116051
:1003F00041E025491831884205D14FF47461224A01
:10040000083A116037E020493031884205D14FF475
:1004100074111D4A083A11602DE01B494831884289
:1004200005D14FF07461184A083A116023E016496B
:100430006031884204D11149134A121F11601AE039
:1004400011497831884204D10D490F4A121F1160B9
:1004500011E00D499031884204D10A490A4A121F1D
:10046000116008E00849A831884204D14FF03D519D
:10047000054A121F11607047106002403D000020C5
:10048000400F002000003D201064024021B10268AE
:1004900042F48022026003E0026822F480220260BB
:1004A000704722B1036843F40023036003E003684C
:1004B00023F400230360016170470146486880B25D
:1004C0007047014600200A6802F400220AB10120A8
:1004D00000E000207047000010B500220268134BB6
:1004E0001A40CC680B6823434C6923438C6923432F
:1004F000CC6923430C6A23434C6A23438C6A23430D
:100500004C6B23438C6B23431A430260426922F0F5
:100510000702D1E90B3423431A4342610B6943605C
:100520004B6883608B68C36010BD00003F801CF087
:10053000416070477047F0B50A460021002300244F
:1005400000BF3DE0012505FA01F3156805EA030443
:100550009C4234D105684F000326BE40B543056078
:1005600015794E00B5400668354305601579012DB3
:1005700002D01579022D16D185684F000326BE40A2
:10058000B543856055794E00B54086683543856032
:10059000456801268E40B5434560456896798E4092
:1005A000B6B235434560C5684F000326BE40B5432B
:1005B000C560D5794E00B540C6683543C560491C55
:1005C0001029BFD3F0BDF0B5002300244D07ED0E78
:1005D00002FA05F3CE1000F1200555F826504E071B
:1005E000F70E0F26BE40B543CF1000F1200646F8A7
:1005F0002750CE1000F1200555F8265045EA030497
:10060000CE1000F1200545F82640F0BD00BFFEE702
:1006100000BFFEE77047000070B5002100230F22E5
:10062000C4781CB3174C246804F4E064C4F5E06497
:10063000C4F30721C1F10404E3B20A4144789C40A9
:10064000E1B28478144021430C07210E0E4C05784A
:100650006155047804F01F050124AC4005786D1144
:10066000AD0005F1E025C5F8004109E0047804F08B
:100670001F050124AC40054D0678761145F826404B
:1006800070BD00000CED00E000E400E080E100E05F
:1006900002490143024A1160704700000000FA0558
:1006A0000CED00E07047000029B1064A12680243D1
:1006B000044B1A6004E0034A12688243014B1A603B
:1006C000704700003038024029B1064A12680243E0
:1006D000044B1A6004E0034A12688243014B1A601B
:1006E000704700004038024029B1064A12680243B0
:1006F000044B1A6004E0034A12688243014B1A60FB
:10070000704700002038024029B1064A12680243AF
:10071000044B1A6004E0034A12688243014B1A60DA
:10072000704700004438024029B1064A126802436B
:10073000044B1A6004E0034A12688243014B1A60BA
:100740007047000024380240F0B500210022002448
:10075000022500260223324F3F6807F00C0121B129
:10076000042905D0082937D105E02E4F076036E06F
:100770002D4F076033E02A4F3F1F3F68C7F3805675
:10078000274F3F1F3F6807F03F036EB1264FB7FB6F
:10079000F3F7DFF88CC0ACF1040CDCF800C0CCF34C
:1007A000881C07FB0CF40CE01E4FB7FBF3F7DFF8D7
:1007B00070C0ACF1040CDCF800C0CCF3881C07FB63
:1007C0000CF4174F3F1F3F68C7F301477F1C7D00A4
:1007D000B4FBF5F7076002E0124F076000BF00BFEF
:1007E0000F4F3F6807F0F0010909104F7A5C076866
:1007F000D74047600A4F3F6807F4E051890A0B4F22
:100800007A5C4768D7408760054F3F6807F46041CE
:10081000490B064F7A5C4768D740C760F0BD0000BF
:10082000083802400024F40000127A000000002082
:1008300070B590B004460E46154601214B48FFF7AF
:1008400033FF01211020FFF75FFF01211020FFF788
:100850006BFF00211020FFF767FF07220A214448A1
:10086000FFF7B1FE4FF480600E9002208DF83C003F
:1008700000208DF83E0003208DF83D0000208DF80B
:100880003F000EA93A48FFF756FE3A4800F0ACFD8B
:1008900039480A900020ADF82C00ADF82E004FF436
:1008A0008060ADF830000420ADF832000020ADF8D3
:1008B00034000AA92F4800F05FFE012240212D4894
:1008C00000F089FD10212B4800F070FD012240F25C
:1008D0002441284800F02AFE0121264800F06FFD3F
:1008E00025208DF83C0002208DF83D0000208DF879
:1008F0003E0001208DF83F000FA8FFF78DFE1F4836
:10090000FFF718FD4FF0006001901A48001D02909B
:10091000039400200490059506904FF480600790A2
:100920000020089009904FF480700A904FF44030F6
:100930000B9000200C900D900E900F9001A90F4885
:10094000FFF7CAFD002231460C48FFF7AAFD01213E
:100950000A48FFF79BFD00210848FFF7DFFC012153
:100960000648FFF7DBFC10B070BD0000010040003E
:100970000000024000100140A086010040640240D7
:1009800010B524220249A1F12400FFF751FF10BD48
:10099000A20000204278837842EA0322C2F30A02CE
:1009A0000A808278D210C37842EA4312C2F30A0264
:1009B0004A80C2789211037942EA8302437942EA7B
:1009C0008322C2F30A028A8042795210837942EA72
:1009D000C312C2F30A02CA80027B437B42EA0322AB
:1009E000C2F30A020A81427BD210837B42EA43129D
:1009F000C2F30A024A8182791211C37942EA0312D0
:100A0000C2F30A02474B1A80C279D211037A42EA32
:100A10004302437A42EA4322C2F30A02414B5A801C
:100A2000427A9210837A42EA8312C2F30A023D4B61
:100A30009A80827A5211C37A42EAC302394BDA8031
:100A40001A461288B2F5806F02DA00228A8101E02C
:100A500002228A81334A5288B2F5167F04DA0023D3
:100A600001F10C02CB8112E02E4A5288B2F5167FBA
:100A700009DD2C4A5288B2F5AF6F04DA012301F187
:100A80000C02CB8103E0022301F10C02CB81254A49
:100A90009288B2F5167F04DA002301F10C020B8272
:100AA00012E0204A9288B2F5167F09DD1D4A92882D
:100AB000B2F5AF6F04DA012301F10C020B8203E0FF
:100AC000022301F10C020B82164AD288B2F5806F24
:100AD00004DA002301F10C024B8203E0022301F14E
:100AE0000C024B820A88A2F5806212B20A804A8800
:100AF000A2F5806212B24A808A88A2F5806212B2A0
:100B00008A80CA88A2F5806212B2CA800A89A2F5D8
:100B1000806212B20A814A89A2F5806212B24A81C9
:100B20007047000024000020704700000CB5002032
:100B3000019000903448006840F4803032490860E9
:100B400000BF3148006800F4003000900198401C5C
:100B50000190009818B90198B0F5A04FF1D12A483A
:100B6000006800F4003010B10120009001E0002086
:100B700000900098012846D123484030006840F09A
:100B800080502149403108602048006840F44040CE
:100B90001E4908601C48083000681B49083108607D
:100BA0000846006840F4004008600846006840F4C9
:100BB000A05008601648091F0860081F006840F030
:100BC0008070091F086000BF0F48006800F00070C7
:100BD0000028F9D040F205700E4908600A48083034
:100BE000006820F0030008490831086008460068E2
:100BF00040F00200086000BF03480830006800F0C1
:100C00000C000828F8D10CBD0038024000700040EC
:100C100008544007003C0240042808D14FF0E0216E
:100C2000096941F004014FF0E022116107E04FF043
:100C3000E021096921F004014FF0E02211617047C1
:100C400010B500F035FB10BD10B51548006840F434
:100C50007000134908601348006840F00100114912
:100C6000086000200F49083108600E4800680E49EE
:100C700008400C4908600D48091D0860081F0068FD
:100C800020F48020091F0860002006490C3108600C
:100C9000FFF74CFF4FF0006001498039086010BD3C
:100CA00088ED00E000380240FFFFF6FE103000241F
:100CB00010B5B42000F0D2FC4FF4A060FFF7E8FCC0
:100CC000FFF75EFE5A214FF47A7000F05FF85A2168
:100CD0004FF47A7000F010F900F0DAFC0149086076
:100CE00010BD000014000020704770477047704727
:100CF00070477047704770477047704710B50121C3
:100D0000204800F019FA00283BD001211D4800F0CE
:100D10003BF91D480088401C1B490880FFF7E4FF91
:100D2000194800880A2190FBF1F201FB120008B972
:100D3000FFF7DBFF14480088142190FBF1F201FB60
:100D4000120008B9FFF7D4FF0F480088642190FB18
:100D5000F1F201FB120008B9FFF7C8FF0A4800884A
:100D60004FF47A7190FBF1F201FB120008B9FFF722
:100D7000BEFF05480088B0F57A7F02D10020024905
:100D8000088010BD000400402200002030B58BB068
:100D900005460C4601210220FFF796FC01210220A6
:100DA000FFF782FC022205212D48FFF70CFC0121F0
:100DB0000220FFF799FC00210220FFF795FC1D207F
:100DC0008DF8140001208DF8150000208DF8160014
:100DD00001208DF8170005A8FFF71EFC681E09907A
:100DE000601E80B2ADF820000020ADF82200ADF802
:100DF0002800012211461B4800F0AFF908A9194844
:100E000000F014FA2020069002208DF81C00032028
:100E10008DF81D0000208DF81E0002208DF81F00A7
:100E200006A90F48FFF787FB6020ADF800000120FE
:100E3000ADF802000020ADF80C006946094800F04A
:100E400095F90821074800F0E3F90121054800F071
:100E50008FF80121034800F09AF80BB030BD000074
:100E6000000402400004004010B50121204800F0B9
:100E700063F900283BD001211D4800F085F81D488A
:100E80000088401C1B490880FFF733FF1948008881
:100E90000A2190FBF1F201FB120008B9FFF72AFFCB
:100EA00014480088142190FBF1F201FB120008B9EC
:100EB000FFF723FF0F480088642190FBF1F201FB4C
:100EC000120008B9FFF717FF0A4800884FF47A713B
:100ED00090FBF1F201FB120008B9FFF70DFF054886
:100EE0000088B0F57A7F02D100200249088010BD49
:100EF00000100040200000207FB505460C4601216F
:100F00001020FFF7E1FB01211020FFF7EDFB00218E
:100F10001020FFF7E9FB154800F046F8681E029024
:100F2000601E80B2ADF804000020ADF80600ADF8F8
:100F30000C0001A90D4800F079F9012211460B4877
:100F400000F00BF936208DF8000003208DF8010029
:100F500000208DF8020001208DF803006846FFF79D
:100F60005BFB0121014800F012F87FBD001000403A
:100F700021B1028842F08002028004E002884FF62C
:100F80007F731A4002807047CA430282704721B1C2
:100F9000028842F00102028004E002884FF6FE73EC
:100FA0001A4002807047000010B50446554884423C
:100FB00008D101210846FFF7B7FB00210120FFF708
:100FC000B3FB9DE0B4F1804F08D101210846FFF743
:100FD0008BFB00210120FFF787FB91E04A48844208
:100FE00008D101210220FFF77FFB00210220FFF73B
:100FF0007BFB85E04548844208D101210420FFF7AE
:1010000073FB00210420FFF76FFB79E04048844226
:1010100008D101210820FFF767FB00210820FFF716
:1010200063FB6DE03B48844208D101211020FFF7AB
:101030005BFB00211020FFF757FB61E0364884423C
:1010400008D101212020FFF74FFB00212020FFF7CE
:101050004BFB55E03148844208D101210220FFF7C3
:1010600063FB00210220FFF75FFB49E02C4884422C
:1010700009D101210804FFF757FB00214FF480300C
:10108000FFF752FB3CE02748844209D10121480484
:10109000FFF74AFB00214FF40030FFF745FB2FE03C
:1010A0002148844209D101218804FFF73DFB00213A
:1010B0004FF48020FFF738FB22E01C48844208D11F
:1010C00001214020FFF710FB00214020FFF70CFB1F
:1010D00016E01748844208D101218020FFF704FB65
:1010E00000218020FFF700FB0AE01248844207D16C
:1010F00001218015FFF7F8FA0021A015FFF7F4FA97
:1011000010BD000000000140000400400008004045
:10111000000C00400010004000140040000401409A
:1011200000400140004401400048014000180040D8
:10113000001C00400020004030B502460020002383
:101140000024158A05EA0103958905EA010413B113
:101150000CB1012000E0002030BD1AB183890B439F
:10116000838102E083898B438381704770B50024BB
:1011700000220023058C4FF6EF7635400584028C63
:101180008388048B48F6FF752C404FF6FF452C40B2
:101190000D884FF6FF7606EA05252C434FF6DF75DE
:1011A0002A408D8906EA05152A434D8806EA051569
:1011B0002A43154DA84202D0144DA8421DD14FF626
:1011C0007F752A40CD894FF6FF7606EA05152A433A
:1011D0004FF6BF752A408D8806EA05152A434FF65B
:1011E000FF352B404FF2FF752B400D8A06EA85052F
:1011F0002B434D8A06EA85052B43838004838D6843
:101200008563028470BD00000000014000040140BD
:101210000A460021018B4FF2FF7319404FF6FF730E
:1012200003EA022319430183704700000022028869
:10123000184B98420ED0184B98420BD0B0F1804F0B
:1012400008D0164B984205D0154B984202D0154B4A
:10125000984204D14FF68F731A404B881A43124BB1
:10126000984207D0114B984204D04FF6FF431A40E2
:101270000B891A4302804B68C3620B880385054BB8
:10128000984202D0044B984201D18B7A0386012305
:1012900083827047000001400004014000040040C8
:1012A00000080040000C0040001000400014004006
:1012B0000448006820B103480068401E01490860E6
:1012C000704700001000002010B540F22551314851
:1012D00000F002F918B12F4800F0B8F959E040F2D7
:1012E00024412C4800F0F8F8002852D0294800F09A
:1012F000ADF92948FFF7E5F828BB00212648FFF79C
:101300000DF82548FFF7D9F8C0F1240023490880DB
:1013100024212148FFF70CF91F48006840F4002001
:101320001D4908601E491C48FEF7DEFF01211A48CE
:10133000FEF7F4FF1948008819282AD119491A48DC
:10134000FFF728FB25E000211348FEF7E7FF1248CE
:10135000FFF7B3F8C0F124001049088024210E489B
:10136000FFF7E6F80C48006820F400200A490860FE
:101370000B490948FEF7B8FF01210748FEF7CEFFE9
:1013800006480088192804D1064907482430FFF789
:1013900001FB10BD00100140406402402C00002001
:1013A000000030106A0000207E00002001F400726E
:1013B000B2F5007F00D100BFCA430280704721B15F
:1013C000828942F40052828104E082894DF6FF73E3
:1013D0001A40828170471AB1838A0B43838202E0EC
:1013E000838A8B438382704710B504463248844217
:1013F00008D101211020FFF797F900211020FFF7F5
:1014000093F957E02D48844209D101214804FFF7A0
:101410006BF900214FF40030FFF766F94AE02848E5
:10142000844209D101218804FFF75EF900214FF4BD
:101430008020FFF759F93DE02248844209D101217B
:10144000C804FFF751F900214FF40020FFF74CF9D1
:1014500030E01D48844209D101210805FFF744F915
:1014600000214FF48010FFF73FF923E01748844232
:1014700008D101212020FFF757F900212020FFF794
:1014800053F917E01248844209D101218807FFF778
:101490002BF900214FF08040FFF726F90AE00D48B4
:1014A000844207D101214005FFF71EF900216005A4
:1014B000FFF71AF910BD0000001001400044004081
:1014C00000480040004C0040005000400014014023
:1014D00000780040007C004070B5024600240023E4
:1014E0000025002040F66A16B14200D100BFC1F3CA
:1014F000421501F01F03012606FA03F3012D02D164
:101500009689334006E0022D02D1168A334001E06D
:10151000968A33400C12012606FA04F416883440E9
:1015200013B10CB1012000E0002070BDF0B50346FE
:10153000002400260025002040F66A17B94200D199
:1015400000BF1846C1F3421401F01F06012707FA35
:1015500006F5012C01D10C3004E0022C01D1103031
:1015600000E014301AB107682F43076002E00768F3
:10157000AF430760F0BD00002DE9FF4705460E466A
:101580000024A14600BFA046B08900B100BF2C8A4C
:1015900024F44054F08804432C82AC8941F20C605E
:1015A0008443B08831890843718908430443AC817E
:1015B000AC8A24F44074B0890443AC826846FFF7D7
:1015C000C3F82048854202D01F48854202D1DDF889
:1015D0000C9001E0DDF80890A88900F4004040B1CB
:1015E00009EBC90000EB091031684900B0FBF1F7C5
:1015F00007E009EBC90000EB091031688900B0FB76
:10160000F1F76420B7FBF0F004012009642101FB2D
:101610001078A88900F4004040B1322000EBC800E7
:10162000B0FBF1F000F00700044308E0322000EBCB
:1016300008106421B0FBF1F000F00F0004432C818E
:10164000BDE8FF8700100140001401400146888872
:10165000C0F30800704700BFFEE7000010B5044665
:101660006FF00400FFF7D8FAE11704EB5171C1F3F2
:10167000C701054A1170104600784FF47A7110FBCB
:1016800001F00249086010BD180000201C00002075
:10169000004870476A000020FFF70AFB00BFFEE722
:1016A0004FF04070E1EE100A70470000CC160008C1
:1016B0000000002030000000C4010008FC160008F3
:1016C00030000020F8060000E001000800000000E3
:1016D00001020304010203040607080900000000D8
:1016E00000000000000000000000000000000000FA
:0C16F000000000000000000000000000EE
:040000050800018965
:00000001FF
