:020000040800F2
:100000002809002029020008A11300088710000811
:100010009D130008E30200086F260008000000009E
:10002000000000000000000000000000B5180008FB
:10003000950F00080000000031140008CD190008D9
:10004000430200084302000843020008430200087C
:10005000430200084302000843020008430200086C
:10006000430200084302000843020008430200085C
:10007000430200084302000843020008430200084C
:10008000430200084302000843020008D9040008A4
:10009000F903000843020008430200084302000875
:1000A000430200084302000843020008430200081C
:1000B00043020008C11C0008430200084302000874
:1000C00043020008430200084302000843020008FC
:1000D000430200088D220008712300084302000833
:1000E00043020008430200084302000843020008DC
:1000F00043020008430200084302000843020008CC
:1001000043020008430200084302000843020008BB
:1001100043020008430200082D1E000843020008A5
:10012000430200084302000843020008430200089B
:10013000430200084302000843020008430200088B
:10014000430200084302000843020008430200087B
:10015000430200084302000843020008430200086B
:10016000430200084302000843020008430200085B
:10017000430200084302000843020008430200084B
:10018000430200084302000800F002F800F03CF8C7
:100190000AA090E8000C82448344AAF10107DA45E2
:1001A00001D100F031F8AFF2090EBAE80F0013F0F8
:1001B000010F18BFFB1A43F001031847F832000083
:1001C00018330000103A24BF78C878C1FAD8520713
:1001D00024BF30C830C144BF04680C6070470000C1
:1001E0000023002400250026103A28BF78C1FBD840
:1001F000520728BF30C148BF0B6070471FB503F0DE
:100200004FF91FBD10B510BD00F031F81146FFF7D2
:10021000F5FF02F047FC00F04FF803B4FFF7F2FFE0
:1002200003BC00F057F80000094880470948004720
:10023000FEE7FEE7FEE7FEE7FEE7FEE7FEE7FEE796
:10024000FEE7FEE704480549054A064B70470000F3
:10025000D51900088901000828030020280900207A
:100260002805002028050020704770477047754614
:1002700000F02CF8AE4605006946534620F0070012
:10028000854618B020B5FFF7DDFFBDE820404FF0F0
:1002900000064FF000074FF000084FF0000B21F070
:1002A0000701AC46ACE8C009ACE8C009ACE8C0093D
:1002B000ACE8C0098D46704710B50446AFF3008026
:1002C0002046BDE81040FFF7A8BF00000048704777
:1002D000C402002001491820ABBEFEE72600020040
:1002E000704700BFFEE7000000B58BB00121084653
:1002F00001F0A0F80121480601F0ACF809220C2118
:100300003B4800F090FE09220B21394800F08BFE9B
:100310004FF4C050029002208DF80C0002A934481E
:1003200000F039FE14208DF8040002208DF805003D
:1003300001208DF806008DF8070001A801F032F8C1
:1003400013208DF8040001208DF805008DF80600BB
:100350008DF8070001A801F025F8264800F022F9E1
:1003600008A800F05AFB00208DF826008DF8270021
:100370008DF828008DF829008DF82A0001208DF8CD
:100380002B0000208DF822008DF8230008208DF826
:10039000240003208DF82500ADF8200008A9154899
:1003A00000F039FA00208DF81A008DF81B000120AA
:1003B0008DF81C000020ADF81000ADF81200ADF86B
:1003C0001400ADF81600ADF8180001208DF81D00DE
:1003D00004A800F003F901220221064800F012FAF5
:1003E00001221146034800F00DFA0BB000BD0000D9
:1003F000000002400064004000B585B0022133488F
:1004000000F070F900285FD00221304800F076F843
:100410006A4600212D4800F088FA9DF8080000285F
:1004200052D19DF8090000284ED19DF80A000828F5
:100430004AD140F201610098884220D19DF8110014
:1004400001069DF8120041EA00419DF80F0041EAC3
:1004500000209DF8101008431D4908609DF8110008
:1004600001069DF8120041EA00419DF80F0041EAA3
:1004700000209DF8101008431649C86124E040F29E
:100480000261009888421FD19DF8110001069DF875
:10049000120041EA00419DF80F0041EA00209DF85A
:1004A000101008430A4948609DF8110001069DF8A4
:1004B000120041EA00419DF80F0041EA00209DF83A
:1004C000101008430349886105B000BD0064004076
:1004D0005C0000206402002010B50121054800F0F6
:1004E00001F930B10121034800F008F80120024968
:1004F000087010BD0064004048000020B1F5007F86
:100500003AD00FDC202928D006DC01291CD0042990
:100510001DD0082940D11DE0402921D0B1F5807FB0
:100520003AD126E0B1F5004F31D006DCB1F5806F4D
:1005300025D0B1F5006F2FD124E0B1F5803F12D066
:10054000B1F5003F28D111E0154A826025E008226C
:10055000C26022E01022C2601FE0082202611CE09B
:100560001022026119E00822426016E01022426067
:1005700013E00422426010E0042242600DE00422F5
:1005800042600AE0002282610422426005E000220B
:1005900082610422426000E000BF00BF704700009B
:1005A0000101010010B504460B48844209D1012124
:1005B000480600F05FFF00214FF0007000F05AFF86
:1005C00008E00121880600F055FF00214FF080600F
:1005D00000F050FF10BD00000064004010B5002185
:1005E000837A012202FA03F13D4A126842F00102C5
:1005F0003B4B1A603A4A1C3212688A43384B1C3310
:100600001A60027BCAB9364A0C3212688A43344BEC
:100610000C331A604288C38842EA0343304A4032AE
:10062000847A42F834300288838842EA03432C4AB1
:100630004032847A02EBC4025360027B012A19D152
:10064000274A0C3212680A43254B0C331A60428841
:10065000038842EA0343224A4032847A42F8343023
:10066000C288838842EA03431D4A4032847A02EBFF
:10067000C4025360C27A3AB9194A121D12688A43F9
:10068000174B1B1D1A6006E0154A121D12680A431B
:10069000134B1B1D1A60028932B9114A14321268B9
:1006A0008A430F4B14331A600289012A06D10C4A7F
:1006B000143212680A430A4B14331A60427B012A2F
:1006C00006D1074A1C3212680A43054B1C331A60D4
:1006D000034A126822F00102014B1A6010BD0000AB
:1006E0000066004070B504460D460026606928404B
:1006F000002871D0B5F5807F5CD010DC082D35D096
:1007000006DC012D20D0022D24D0042D72D127E04B
:10071000102D31D0202D35D0402D6BD138E0B5F5DE
:10072000004F60D009DCB5F5007F49D0B5F5806F8A
:100730004CD0B5F5006F5DD14FE0B5F5803F2DD0C1
:10074000B5F5003F56D12FE0A0682D4900F058FACA
:10075000064651E0E068032100F052FA06464BE0FD
:10076000E068082100F04CFA064645E0E0681021F8
:1007700000F046FA06463FE02069032100F040FA07
:10078000064639E02069082100F03AFA064633E0CF
:100790002069102100F034FA06462DE06068082137
:1007A00000F02EFA064627E06068102100F028FAD3
:1007B000064621E0A069012100F022FA06461BE06E
:1007C000A069022100F01CFA064615E0A069042188
:1007D00000F016FA06460FE00FE0A069702100F065
:1007E0000FFA064608E06068042100F009FA0646A0
:1007F00002E0FFE7002600BF00E00026304670BDA3
:10080000010101001AB143690B43436102E04369EE
:100810008B434361704730B50246002000231468C3
:1008200024F002041460146844F00104146000E031
:100830005B1C546804F001041CB94FF6FF74A3421A
:10084000F6D1546804F001040CB900206CE08C79F6
:10085000012C04D1146844F08004146003E014688F
:1008600024F080041460CC79012C04D1146844F085
:100870004004146003E0146824F0400414600C7A0F
:10088000012C04D1146844F02004146003E01468BF
:1008900024F0200414604C7A012C04D1146844F034
:1008A0001004146003E0146824F0100414608C7ABF
:1008B000012C04D1146844F00804146003E01468A7
:1008C00024F008041460CC7A012C04D1146844F09C
:1008D0000404146003E0146824F0040414608C78A9
:1008E000A407CD7844EA05640D7944EA05444D79BE
:1008F00044EA05540D886D1E2C43D461146824F01D
:1009000001041460002300E05B1C546804F001043F
:100910001CB14FF6FF74A342F6D1546804F00104F1
:100920000CB1002000E0012030BD10B500F5D873F7
:1009300003EB01131B6803F004031372137A53B91A
:1009400000F5D87303EB01131B6840F2FF7404EA4F
:100950005353136009E000F5D87303EB01131B68D0
:100960006FF0604404EAD303536000F5D87303EBDF
:1009700001131B6803F00203537200F5D87303EBF5
:1009800001135B6803F00F03937200F5D87303EB58
:1009900001135B681B0AD37400F5D87303EB0113D2
:1009A0009B68D37200F5D87303EB01139B681C0A94
:1009B000147300F5D87303EB01139B681C0C54737C
:1009C00000F5D87303EB01139B681B0E937300F5BE
:1009D000D87303EB0113DB68D37300F5D87303EB13
:1009E0000113DB681C0A147400F5D87303EB0113C0
:1009F000DB681C0C547400F5D87303EB0113DB683F
:100A00001B0E937421B9C36843F02003C36003E055
:100A1000036943F02003036110BD00218171C1719E
:100A2000017241728172C1728170C17003210171C2
:100A30000221417101210180704710B5024600205A
:100A4000936803F08063B3F1806F00D110E0936886
:100A500003F00063B3F1006F01D1012008E0936857
:100A600003F08053B3F1805F01D1022000E0042045
:100A7000042874D002F5C07303EB00131B6803F065
:100A8000010402F5C07303EB00131C600B7A7BB901
:100A90004B7A0C8843EA445302F5C07404EB00140B
:100AA0002468234302F5C07404EB0014236010E0B3
:100AB0000B7A4C6843EAC4034C7A234302F5C074B2
:100AC00004EB00142468234302F5C07404EB001403
:100AD00023608B7A03F00F038B7202F5C07303EB74
:100AE00000135B6823F00F0402F5C07303EB0013DF
:100AF0005C6002F5C07303EB00135B688C7A2343E0
:100B000002F5C07404EB001463608B7B1C064B7B06
:100B100044EA03440B7B44EA0323CC7A234302F5E3
:100B2000C07404EB0014A3608B7C1C064B7C44EA6D
:100B300003440B7C44EA0323CC7B234302F5C074BB
:100B400004EB0014E36002F5C07303EB00131B68B1
:100B500043F0010402F5C07303EB00131C6010BDE9
:100B600010B50246002321B1012907D002290FD177
:100B700009E090681D4C00EA04030BE090681C4CEF
:100B800000EA040306E090681A4C00EA040301E05E
:100B9000002300BF00BF184C181BA34216D007DC6F
:100BA00083B16FF08060184470B1022818D111E051
:100BB000B0F5007F10D0114C204448B1B0F5003F93
:100BC0000ED10BE002230DE000230BE0002309E02F
:100BD000002307E0012305E0012303E0012301E0F6
:100BE000002300BF00BFD8B210BD00000300000406
:100BF0000003000800000310000100080001FFF7D7
:100C00000246002002EA01030BB1012000E00020AF
:100C10007047000010B504463E4801780078401C3B
:100C20003C4A10703C4844540078552803D00020BA
:100C30001146087010BD374800780B2800DAF9E734
:100C40003548407850380A2856D2DFE800F0050DC4
:100C5000151D252D353D454D30482F49891C0A6805
:100C600002604968416047E02D482B49891C0A68A9
:100C70000260496841603FE02A482749891C0A68A8
:100C800002604968416037E027482349891C0A68A7
:100C90000260496841602FE024481F49891C0A68A6
:100CA00002604968416027E021481B49891C0A68A5
:100CB0000260496841601FE01E481749891C0A68A4
:100CC00002604968416017E01B481349891C0A68A3
:100CD0000260496841600FE018480F49891C0A68A2
:100CE00002604968416007E015480B49891C0A68A1
:100CF00002604968416000BF00BF002005490870DC
:100D000001F0B8FC0F48808A401C00B20D4988826F
:100D100000BF8FE7C8000020D40000207000002032
:100D2000780000208000002088000020980000202B
:100D3000A0000020A8000020B0000020B800002083
:100D4000C0000020640200200246094B9A4201D2F2
:100D5000084801E00648103801F000531BB1064B6B
:100D60000B40C36002E0044B0B40836070470000FF
:100D700010640240006002407D0F7D0F21B10268C7
:100D800042F00102026003E0026822F00102026008
:100D900070470000016821F001010160002101603D
:100DA00041608160C1600161212141614A498842FD
:100DB00004D13D21484A103A91608CE046491831EF
:100DC000884205D14FF47461434A103A916082E041
:100DD00041493031884205D14FF474113E4A103AEE
:100DE000916078E03C494831884205D14FF0746108
:100DF000394A103A91606EE037496031884204D137
:100E00003649354A103AD16065E033497831884235
:100E100004D13349304A103AD1605CE02E49903118
:100E2000884204D12F492C4A103AD16053E02A4914
:100E3000A831884205D14FF03D51274A103AD16080
:100E400049E02949884204D13D21274A083A1160E6
:100E500041E025491831884205D14FF47461224A96
:100E6000083A116037E020493031884205D14FF40B
:100E700074111D4A083A11602DE01B49483188421F
:100E800005D14FF07461184A083A116023E0164901
:100E90006031884204D11149134A121F11601AE0CF
:100EA00011497831884204D10D490F4A121F11604F
:100EB00011E00D499031884204D10A490A4A121FB3
:100EC000116008E00849A831884204D14FF03D5133
:100ED000054A121F11607047106002403D0000205B
:100EE000400F002000003D201064024021B1026844
:100EF00042F48022026003E0026822F48022026051
:100F0000704722B1036843F40023036003E00368E1
:100F100023F400230360016170470146486880B2F2
:100F20007047014600200A6802F400220AB101203D
:100F300000E000207047000010B500220268134B4B
:100F40001A40CC680B6823434C6923438C692343C4
:100F5000CC6923430C6A23434C6A23438C6A2343A2
:100F60004C6B23438C6B23431A430260426922F08B
:100F70000702D1E90B3423431A4342610B694360F2
:100F80004B6883608B68C36010BD00003F801CF01D
:100F9000416070477047F0B50A46002100230024E5
:100FA00000BF3DE0012505FA01F3156805EA0304D9
:100FB0009C4234D105684F000326BE40B54305600E
:100FC00015794E00B5400668354305601579012D49
:100FD00002D01579022D16D185684F000326BE4038
:100FE000B543856055794E00B540866835438560C8
:100FF000456801268E40B5434560456896798E4028
:10100000B6B235434560C5684F000326BE40B543C0
:10101000C560D5794E00B540C6683543C560491CEA
:101020001029BFD3F0BDF0B5002300244D07ED0E0D
:1010300002FA05F3CE1000F1200555F826504E07B0
:10104000F70E0F26BE40B543CF1000F1200646F83C
:101050002750CE1000F1200555F8265045EA03042C
:10106000CE1000F1200545F82640F0BD02460020D4
:1010700013690B400BB1012000E000207047418351
:1010800070470183704700BFFEE7000010B588B0CD
:1010900004460121480400F0DDF90121084600F072
:1010A000C9F9072202212F48FFF7BDFF07220321BC
:1010B0002C48FFF7B8FF0420069002208DF81C0092
:1010C00000208DF81E0003208DF81D0001208DF8F2
:1010D0001F0006A92348FFF75EFF082006900220A4
:1010E0008DF81C0000208DF81E0003208DF81D00D7
:1010F00001208DF81F0006A91A48FFF74CFF029443
:101100000020ADF814000C20ADF812000020ADF85E
:101110001000ADF80E00ADF80C0002A9124801F065
:1011200037FA0121104801F055F9002240F22771E9
:101130000D4801F007FA012240F225510A4801F05A
:1011400001FA26208DF8040001208DF807008DF8A3
:10115000050002208DF8060001A800F023F908B070
:1011600010BD000000000240004400401CB50121F9
:10117000202000F05FF94FF4C060009001208DF84E
:10118000040000208DF8060003208DF805000120E2
:101190008DF8070069460448FFF7FDFE4FF4C06173
:1011A0000148FFF76EFF1CBD0014024030B585B04A
:1011B000002440F201100090019000208DF80800FA
:1011C0008DF8090006208DF80A0000208DF80B002C
:1011D00024218DF80C1000218DF80D1010218DF8B0
:1011E0000E1000218DF80F1001218DF810106946A6
:1011F0000C48FFF722FC054600BF01E0601C84B2EA
:1012000029460848FFF7ACFC18B940F6FF70844245
:10121000F4DB40F6FF70844202DB012005B030BDF4
:101220000020FBE70064004070B586B0044600254E
:1012300040F201100190029000208DF80C008DF812
:101240000D0006208DF80E0000208DF80F002821DB
:101250008DF8101000218DF811108DF81210210A50
:101260008DF813108DF8144001A90D48FFF7E5FB28
:10127000064600BF01E0681C85B231460848FFF70A
:101280006FFC18B940F6FF708542F4DB40F6FF7042
:10129000854202DB012006B070BD0020FBE70000A4
:1012A0000064004030B585B000244FF48170009098
:1012B000019000208DF808008DF8090006208DF8B7
:1012C0000A0000208DF80B0024218DF80C1000215D
:1012D0008DF80D1010218DF80E1000218DF80F10D3
:1012E00001218DF8101069460C48FFF7A6FB054652
:1012F00000BF01E0601C84B229460848FFF730FCBB
:1013000018B940F6FF708442F4DB40F6FF70844267
:1013100002DB012005B030BD0020FBE70064004087
:1013200070B586B0044600254FF48170019002909C
:1013300000208DF80C008DF80D0006208DF80E00B1
:1013400000208DF80F0028218DF8101000218DF855
:1013500011108DF81210210A8DF813108DF8144019
:1013600001A90D48FFF769FB064600BF01E0681CB4
:1013700085B231460848FFF7F3FB18B940F6FF7015
:101380008542F4DB40F6FF70854202DB012006B0A7
:1013900070BD0020FBE700000064004000BFFEE7D6
:1013A0007047000070B5002100230F22C4781CB3E1
:1013B000174C246804F4E064C4F5E064C4F3072126
:1013C000C1F10404E3B20A4144789C40E1B284785C
:1013D000144021430C07210E0E4C0578615504780A
:1013E00004F01F050124AC4005786D11AD0005F136
:1013F000E025C5F8004109E0047804F01F05012448
:10140000AC40054D0678761145F8264070BD0000C9
:101410000CED00E000E400E080E100E0024901435F
:10142000024A1160704700000000FA050CED00E070
:101430007047000029B1064A12680243044B1A6043
:1014400004E0034A12688243014B1A6070470000AF
:101450003038024029B1064A12680243044B1A6030
:1014600004E0034A12688243014B1A60704700008F
:101470004038024029B1064A12680243044B1A6000
:1014800004E0034A12688243014B1A60704700006F
:101490002038024029B1064A12680243044B1A6000
:1014A00004E0034A12688243014B1A60704700004F
:1014B0004438024029B1064A12680243044B1A60BC
:1014C00004E0034A12688243014B1A60704700002F
:1014D00024380240F0B50021002200240225002615
:1014E0000223324F3F6807F00C0121B1042905D0D7
:1014F000082937D105E02E4F076036E02D4F0760F1
:1015000033E02A4F3F1F3F68C7F38056274F3F1FE6
:101510003F6807F03F036EB1264FB7FBF3F7DFF8E4
:101520008CC0ACF1040CDCF800C0CCF3881C07FBC9
:101530000CF40CE01E4FB7FBF3F7DFF870C0ACF112
:10154000040CDCF800C0CCF3881C07FB0CF4174F2C
:101550003F1F3F68C7F301477F1C7D00B4FBF5F7D1
:10156000076002E0124F076000BF00BF0F4F3F68E7
:1015700007F0F0010909104F7A5C0768D74047600F
:101580000A4F3F6807F4E051890A0B4F7A5C4768BD
:10159000D7408760054F3F6807F46041490B064F0D
:1015A0007A5C4768D740C760F0BD00000838024049
:1015B0000024F40000127A000000002070B590B002
:1015C00004460E46154601214B48FFF733FF012123
:1015D0001020FFF75FFF01211020FFF76BFF0021B4
:1015E0001020FFF767FF07220A214448FFF71BFD81
:1015F0004FF480600E9002208DF83C0000208DF8A2
:101600003E0003208DF83D0000208DF83F000EA91C
:101610003A48FFF7C0FC3A4800F0F2FE39480A9019
:101620000020ADF82C00ADF82E004FF48060ADF82E
:1016300030000420ADF832000020ADF834000AA9D3
:101640002F4800F0A5FF012240212D4800F0CEFEDA
:1016500010212B4800F0A6FE012240F22441284828
:1016600000F070FF0121264800F0B4FE25208DF81F
:101670003C0002208DF83D0000208DF83E00012046
:101680008DF83F000FA8FFF78DFE1F48FFF782FB84
:101690004FF0006001901A48001D02900394002052
:1016A0000490059506904FF4806007900020089004
:1016B00009904FF480700A904FF440300B90002056
:1016C0000C900D900E900F9001A90F48FFF734FC7D
:1016D000002231460C48FFF714FC01210A48FFF7AD
:1016E00005FC00210848FFF749FB01210648FFF7E8
:1016F00045FB10B070BD000001004000000002403A
:1017000000100140A08601004064024010B5242270
:101710000249A1F12400FFF751FF10BD4002002053
:101720004278837842EA0322C2F30A020A8082786E
:10173000D210C37842EA4312C2F30A024A80C27846
:101740009211037942EA8302437942EA8322C2F387
:101750000A028A8042795210837942EAC312C2F3A4
:101760000A02CA80027B437B42EA0322C2F30A02D6
:101770000A81427BD210837B42EA4312C2F30A02FF
:101780004A8182791211C37942EA0312C2F30A0232
:10179000474B1A80C279D211037A42EA4302437A54
:1017A00042EA4322C2F30A02414B5A80427A921023
:1017B000837A42EA8312C2F30A023D4B9A80827A0C
:1017C0005211C37A42EAC302394BDA801A461288B0
:1017D000B2F5806F02DA00228A8101E002228A815A
:1017E000334A5288B2F5167F04DA002301F10C0265
:1017F000CB8112E02E4A5288B2F5167F09DD2C4AC1
:101800005288B2F5AF6F04DA012301F10C02CB81EB
:1018100003E0022301F10C02CB81254A9288B2F544
:10182000167F04DA002301F10C020B8212E0204A39
:101830009288B2F5167F09DD1D4A9288B2F5AF6F26
:1018400004DA012301F10C020B8203E0022301F10F
:101850000C020B82164AD288B2F5806F04DA00239C
:1018600001F10C024B8203E0022301F10C024B82D6
:101870000A88A2F5806212B20A804A88A2F58062C4
:1018800012B24A808A88A2F5806212B28A80CA881F
:10189000A2F5806212B2CA800A89A2F5806212B2F1
:1018A0000A814A89A2F5806212B24A81704700001B
:1018B000CA000020704700000CB500200190009085
:1018C0003448006840F480303249086000BF314835
:1018D000006800F4003000900198401C01900098CE
:1018E00018B90198B0F5A04FF1D12A48006800F46A
:1018F000003010B10120009001E00020009000981D
:10190000012846D123484030006840F080502149EA
:10191000403108602048006840F440401E4908609B
:101920001C48083000681B490831086008460068F8
:1019300040F4004008600846006840F4A050086089
:101940001648091F0860081F006840F08070091FD2
:10195000086000BF0F48006800F000700028F9D050
:1019600040F205700E4908600A480830006820F00F
:1019700003000849083108600846006840F002008A
:10198000086000BF03480830006800F00C00082819
:10199000F8D10CBD003802400070004008544007E8
:1019A000003C0240042808D14FF0E021096941F0D1
:1019B00004014FF0E022116107E04FF0E0210969D6
:1019C00021F004014FF0E0221161704710B500F0E2
:1019D00051FC10BD10B51548006840F47000134963
:1019E00008601348006840F00100114908600020B9
:1019F0000F49083108600E4800680E4908400C493C
:101A000008600D48091D0860081F006820F4802048
:101A1000091F0860002006490C310860FFF74CFFE1
:101A20004FF0006001498039086010BD88ED00E08A
:101A300000380240FFFFF6FE1030002410B5544875
:101A40000068B0F9020000EE900AF8EEE00AB0EE8D
:101A5000600A9FED502ADFED501A9FED501ADFED1E
:101A6000500A01F023F8BDEEC00A4E4880ED000A8E
:101A700047480068B0F9040000EE900AF8EEE00A6A
:101A8000B0EE600A9FED432ADFED431A9FED431A43
:101A9000DFED430A01F00AF8BDEEC00A424880EDCE
:101AA000000A3B4800688089E8B939480068408AE4
:101AB000022818D000203D4908703D4908703D4972
:101AC00008703D4908703D4908703D490870354827
:101AD0000088404200B2FFF7A7FB3348008800B2FD
:101AE000FFF71EFC41E02A480068408A022824D102
:101AF0003448C078022808D0334890ED150A80EDAC
:101B00000A0AB1EE000A00F09FFE2848007848B9A2
:101B100000F0B8FF30B900F041FE012825D123497B
:101B2000087022E0DFED290A9FED280A00F0A8FEE8
:101B300000F0BAFE00F022FE17E01A48008840428A
:101B400000B2FFF771FB1748008800B2FFF7E8FB0F
:101B50000020164908701649087016490870164981
:101B60000870164908701649087009480068007B1B
:101B70001449087006480068807B48700448006873
:101B8000007C887002480068807CC87010BD00002E
:101B90001400002000803B4500803BC500C043444A
:101BA000000044C41C000020200000202800002069
:101BB000290000202A0000202B0000202C000020FB
:101BC0002D0000202E0000206402002000000000F4
:101BD00010B5B42000F0FAFE4FF4A060FFF71EFC31
:101BE000FFF7C4FAFFF792FD00F058FF0E490860B6
:101BF000FEF77AFB4FF4FA7000F002FFFFF7D6FA17
:101C0000FFF750FB4FF41650FFF740FA00F05EFF6D
:101C1000532140F2E73000F09BF8532140F2E730C7
:101C200000F04CF910BD00001400002070470000C7
:101C300010B5FFF703FF00F025FF084908600848CA
:101C4000B0F914000A2190FBF1F201FB120020B957
:101C500000F0BAFF034880ED000A10BD2400002008
:101C600064020020340000207047000010B50F48C7
:101C7000007868B94FF400710D48FFF700FA4FF48F
:101C800080610B48FFF7FDF90120084908700CE05E
:101C90004FF400710648FFF7F4F94FF480610448EF
:101CA000FFF7EDF900200149087010BD3200002057
:101CB0000014024070477047704770477047704784
:101CC00010B50121204800F019FA00283BD001216D
:101CD0001D4800F03BF91D480088401C1B49088046
:101CE000FFF7A4FF194800880A2190FBF1F201FBDD
:101CF000120008B9FFF79CFF14480088142190FBDC
:101D0000F1F201FB120008B9FFF7D4FF0F48008879
:101D1000642190FBF1F201FB120008B9FFF7A4FF68
:101D20000A4800884FF47A7190FBF1F201FB12002F
:101D300008B9FFF79BFF05480088B0F57A7F02D10C
:101D400000200249088010BD00040040420000202D
:101D500030B58BB005460C4601210220FFF77AFB17
:101D600001210220FFF766FB022205212D48FFF723
:101D70005AF901210220FFF77DFB00210220FFF725
:101D800079FB1D208DF8140001208DF8150000202E
:101D90008DF8160001208DF8170005A8FFF702FB4B
:101DA000681E0990601E80B2ADF820000020ADF8DA
:101DB0002200ADF82800012211461B4800F0AFF9BF
:101DC00008A9194800F014FA2020069002208DF886
:101DD0001C0003208DF81D0000208DF81E0002203D
:101DE0008DF81F0006A90F48FFF7D5F86020ADF861
:101DF00000000120ADF802000020ADF80C0069469B
:101E0000094800F095F90821074800F0E3F901219D
:101E1000054800F08FF80121034800F09AF80BB054
:101E200030BD0000000402400004004010B5012154
:101E3000204800F063F900283BD001211D4800F044
:101E400085F81D480088401C1B490880FFF733FFB8
:101E5000194800880A2190FBF1F201FB120008B931
:101E6000FFF72AFF14480088142190FBF1F201FBD0
:101E7000120008B9FFF723FF0F480088642190FB88
:101E8000F1F201FB120008B9FFF717FF0A480088BA
:101E90004FF47A7190FBF1F201FB120008B9FFF7E1
:101EA0000DFF05480088B0F57A7F02D10020024975
:101EB000088010BD00100040400000207FB505469E
:101EC0000C4601211020FFF7C5FA01211020FFF771
:101ED000D1FA00211020FFF7CDFA154800F046F89E
:101EE000681E0290601E80B2ADF804000020ADF8BC
:101EF0000600ADF80C0001A90D4800F079F90122A7
:101F000011460B4800F00BF936208DF80000032035
:101F10008DF8010000208DF8020001208DF80300EB
:101F20006846FFF73FFA0121014800F012F87FBD33
:101F30000010004021B1028842F08002028004E0DB
:101F400002884FF67F731A4002807047CA430282AC
:101F5000704721B1028842F00102028004E0028849
:101F60004FF6FE731A4002807047000010B5044619
:101F70005548844208D101210846FFF79BFA002109
:101F80000120FFF797FA9DE0B4F1804F08D10121BD
:101F90000846FFF76FFA00210120FFF76BFA91E086
:101FA0004A48844208D101210220FFF763FA002148
:101FB0000220FFF75FFA85E04548844208D10121FD
:101FC0000420FFF757FA00210420FFF753FA79E0C5
:101FD0004048844208D101210820FFF74BFA002134
:101FE0000820FFF747FA6DE03B48844208D1012101
:101FF0001020FFF73FFA00211020FFF73BFA61E0C5
:102000003648844208D101212020FFF733FA00210D
:102010002020FFF72FFA55E03148844208D10121F2
:102020000220FFF747FA00210220FFF743FA49E0B8
:102030002C48844209D101210804FFF73BFA002112
:102040004FF48030FFF736FA3CE02748844209D14C
:1020500001214804FFF72EFA00214FF40030FFF76A
:1020600029FA2FE02148844209D101218804FFF791
:1020700021FA00214FF48020FFF71CFA22E01C48CF
:10208000844208D101214020FFF7F4F900214020CB
:10209000FFF7F0F916E01748844208D101218020AB
:1020A000FFF7E8F900218020FFF7E4F90AE0124881
:1020B000844207D101218015FFF7DCF90021A0152A
:1020C000FFF7D8F910BD00000000014000040040F7
:1020D00000080040000C00400010004000140040C8
:1020E000000401400040014000440140004801401C
:1020F00000180040001C00400020004030B502469F
:10210000002000230024158A05EA0103958905EAC9
:10211000010413B10CB1012000E0002030BD1AB160
:1021200083890B43838102E083898B4383817047DA
:1021300070B5002400220023058C4FF6EF76354061
:102140000584028C8388048B48F6FF752C404FF67B
:10215000FF452C400D884FF6FF7606EA05252C43F7
:102160004FF6DF752A408D8906EA05152A434D880A
:1021700006EA05152A43154DA84202D0144DA8427F
:102180001DD14FF67F752A40CD894FF6FF7606EABE
:1021900005152A434FF6BF752A408D8806EA0515B6
:1021A0002A434FF6FF352B404FF2FF752B400D8A27
:1021B00006EA85052B434D8A06EA85052B43838075
:1021C00004838D688563028470BD000000000140B7
:1021D000000401400A460021018B4FF2FF731940B1
:1021E0004FF6FF7303EA022319430183704700008F
:1021F00000220288184B98420ED0184B98420BD000
:10220000B0F1804F08D0164B984205D0154B98423C
:1022100002D0154B984204D14FF68F731A404B8869
:102220001A43124B984207D0114B984204D04FF6F4
:10223000FF431A400B891A4302804B68C3620B8824
:102240000385054B984202D0044B984201D18B7A0A
:10225000038601238382704700000140000401408F
:102260000004004000080040000C00400010004046
:10227000001400400448006820B103480068401E74
:1022800001490860704700001000002010B540F2BE
:102290002551314800F02CF918B12F4800F0E2F92F
:1022A00059E040F224412C4800F022F9002852D095
:1022B000294800F0D7F92948FEF733FE28BB002152
:1022C0002648FEF75BFD2548FEF727FEC0F12400F7
:1022D0002349088024212148FEF75AFE1F48006840
:1022E00040F400201D4908601E491C48FEF72CFDE3
:1022F00001211A48FEF742FD1948008819282AD101
:1023000019491A48FFF70CFA25E000211348FEF797
:1023100035FD1248FEF701FEC0F124001049088087
:1023200024210E48FEF734FE0C48006820F40020FB
:102330000A4908600B490948FEF706FD01210748D4
:10234000FEF71CFD06480088192804D106490748F5
:102350002430FFF7E5F910BD001001404064024051
:10236000D200002000003010080200201C020020D3
:1023700010B540F225510A4800F0BAF850B10849AA
:10238000091D0988C8B2FEF745FC40F225510448F2
:1023900000F011F84FF45871014800F00CF810BD2E
:1023A0000044004001F40072B2F5007F00D100BF8C
:1023B000CA430280704710B50022002340F66A1419
:1023C000A14200D100BF0A1201249440A3B2DC4311
:1023D000048010BD21B1828942F40052828104E060
:1023E00082894DF6FF731A40828170471AB1838A41
:1023F0000B43838202E0838A8B4383827047000011
:1024000010B504463248844208D101211020FFF75C
:1024100051F800211020FFF74DF857E02D48844275
:1024200009D101214804FFF725F800214FF40030BD
:10243000FFF720F84AE02848844209D101218804A6
:10244000FFF718F800214FF48020FFF713F83DE064
:102450002248844209D10121C804FFF70BF800216A
:102460004FF40020FFF706F830E01D48844209D100
:1024700001210805FEF7FEFF00214FF48010FEF752
:10248000F9FF23E01748844208D101212020FFF7FB
:1024900011F800212020FFF70DF817E012488442C0
:1024A00009D101218807FEF7E5FF00214FF08040A8
:1024B000FEF7E0FF0AE00D48844207D10121400504
:1024C000FEF7D8FF00216005FEF7D4FF10BD000025
:1024D000001001400044004000480040004C004013
:1024E000005000400014014000780040007C004093
:1024F00070B50246002400230025002040F66A162D
:10250000B14200D100BFC1F3421501F01F03012603
:1025100006FA03F3012D02D19689334006E0022D1D
:1025200002D1168A334001E0968A33400C1201260C
:1025300006FA04F41688344013B10CB1012000E00F
:10254000002070BDF0B503460024002600250020C1
:1025500040F66A17B94200D100BF1846C1F34214D1
:1025600001F01F06012707FA06F5012C01D10C30F6
:1025700004E0022C01D1103000E014301AB10768D9
:102580002F43076002E00768AF430760F0BD00001B
:102590002DE9FF4705460E460024A14600BFA04690
:1025A000B08900B100BF2C8A24F44054F088044361
:1025B0002C82AC8941F20C608443B0883189084395
:1025C000718908430443AC81AC8A24F44074B08917
:1025D0000443AC826846FEF77DFF2048854202D066
:1025E0001F48854202D1DDF80C9001E0DDF808902B
:1025F000A88900F4004040B109EBC90000EB0910C4
:1026000031684900B0FBF1F707E009EBC90000EBC6
:10261000091031688900B0FBF1F76420B7FBF0F0D6
:1026200004012009642101FB1078A88900F400400E
:1026300040B1322000EBC800B0FBF1F000F0070021
:10264000044308E0322000EB08106421B0FBF1F0F5
:1026500000F00F0004432C81BDE8FF87001001400B
:102660000014014001468888C0F30800704700BF8D
:10267000FEE7000010B52DED068B3249B1F90400DC
:1026800000F002FD41EC1A0B9FED2F0B53EC102BC9
:1026900000F0A2FB41EC190B9FED2D0B53EC102B1E
:1026A00000F00AFD41EC180B00F0BCFA2A4948651D
:1026B0002449B1F9000000F0E7FC41EC1A0B9FED52
:1026C000220B53EC102B00F087FB41EC190B9FED14
:1026D000200B53EC102B00F0EFFC41EC180B00F03A
:1026E000A1FA1D4988651749B1F9020000F0CCFC38
:1026F00041EC1A0B9FED140B53EC102B00F06CFB0C
:1027000041EC190B9FED120B53EC102B00F0D4FC95
:1027100041EC180B00F086FA0F49C8650846B0F97D
:1027200014000A2190FBF1F201FB12010A482C303F
:1027300000EB8100084991ED150A80ED000ABDEC1F
:10274000068B10BD88000020000000000000E04063
:10275000000000000080664064020020064890ED02
:10276000001A31EE001A80ED001A90ED011A31EED8
:10277000201A80ED011A70476402002010B5064946
:10278000098A494208B2FEF74FFD0349B1F9120028
:10279000FEF7C6FD10BD00006402002010B52DED4F
:1027A000088B224880692149096A884232DA1F4829
:1027B00090ED000AD0ED020AB4EEE00AF1EE10FA54
:1027C00020D300F09DF9044600F05EFC41EC1B0BA9
:1027D0009FED170B53EC102B00F06EFC41EC1A0B25
:1027E0009FED150B53EC102B00F064FD41EC190B21
:1027F00000F018FA08EE100ADFED110AB0EE480AF0
:1028000000F046F800F050F8FFF7B8FF0020BDECEC
:10281000088B10BDDFED0B0A9FED0A0A00F030F8BF
:1028200000F042F8FFF7AAFF0120F0E76402002061
:102830007B14AE47E17A943F7B14AE47E17AC43F04
:102840000AD7233E000000000A48D0ED060AF8EE41
:10285000E00A9FED091A40EE010AFDEEE00AC0ED24
:10286000080ADFED060AC0ED020ADFED040AC0ED3A
:10287000030A7047640200209056CF490AD7233ECE
:10288000024880ED020AC0ED030A7047640200208E
:10289000044880ED000A80ED020AC0ED010AC0ED97
:1028A000030A70476402002000B5414890ED000A19
:1028B000D0ED020AB4EEE00AF1EE10FA06D2DFED36
:1028C0003D0A9FED3C0AFFF749FF1BE0384890EDB9
:1028D000000AD0ED020AB4EEE00AF1EE10FA06DDCD
:1028E000DFED350A9FED340AFFF738FF0AE0304884
:1028F00090ED031AF0EE410A90ED021AB0EE410A93
:10290000FFF7C6FF2A4890ED000ADFED2C0A80EEA3
:10291000201A9FED2B0A21EE000ADFED2A0A20EE95
:10292000200ABDEEC00A10EE100A00B2204908824B
:10293000084690ED010ADFED210A80EE201A9FED96
:10294000200A21EE000ADFED1F0A20EE200ABDEE6C
:10295000C00A10EE100A00B248820846B0F9100012
:1029600040F6B831884203DD08461149088209E083
:102970000F48B0F910001449884203DA4FF248407A
:102980000B4908820A48B0F9120040F6B831884273
:1029900003DD08460649488209E00548B0F91200FF
:1029A0000949884203DA4FF248400149488200BD94
:1029B000640200206F12833C6F1283BCEB26713FD0
:1029C000000070420000204348F4FFFF10B50446A9
:1029D0006FF00400FEF7E6FFE11704EB5171C1F35D
:1029E000C701054A1170104600784FF47A7110FB48
:1029F00001F00249086010BD380000203C000020B2
:102A000070B504464FF4077094FBF0F0C6B24FF473
:102A1000077094FBF0F100FB114085B205E04FF424
:102A2000077000F009F8701EC6B2002EF7D115B17C
:102A3000284600F001F870BD0146114A12684A4369
:102A40004FF0E0235A6100229A611A46126942F05F
:102A500001021A6100BF4FF0E022106900F001028C
:102A60001AB100F48032002AF5D04FF0E02212694A
:102A700022F001024FF0E0231A6100229A617047B0
:102A80003C00002010B501210348FEF7EFFA0128B1
:102A900000D110BD0020FCE7001002400048704744
:102AA00008020020FFF794F800BFFEE7F0EE402A8E
:102AB00032EEE00A32EE613A20EE030A71EE603A3D
:102AC00080EE233A33EE210A704700001CB5012145
:102AD0001020FEF7AFFC0120009000208DF80400CC
:102AE0008DF8060002208DF8070000208DF8050003
:102AF00069460248FEF74FFA1CBD00000010024074
:102B00002D4890ED150ADFED2D0AB4EEE00AF1EE46
:102B100010FA1CD290ED0A0ADFED290AB4EEE00AA1
:102B2000F1EE10FA13DD90ED150ADFED260A30EE16
:102B3000200ADFED240A30EE200AD0ED0A0A30EE3A
:102B4000600ABDEEC00A10EE100A40B270471A4883
:102B500090ED150ADFED1A0AB4EEE00AF1EE10FA74
:102B60001CDD90ED0A0ADFED150AB4EEE00AF1EE85
:102B700010FA13D290ED150ADFED120A30EE600A5A
:102B8000DFED100A30EE600AD0ED0A0A30EE600A7E
:102B9000BDEEC00A10EE100A40B2D7E7064890ED2D
:102BA000150AD0ED0A0A30EE600ABDEEC00A10EE3A
:102BB000100A40B2CAE7000064020020000011C3FE
:102BC0000000114300003443154890ED100AD0ED89
:102BD000110A30EE200AD0ED120A30EE200AD0EDB4
:102BE000130A30EE200AD0ED140A30EE200AD0EDA0
:102BF0000B0A90ED0C1A70EE810A90ED0D1A70EE32
:102C0000810A90ED0E1A70EE810A90ED0F1A70EEA7
:102C1000810A70EE600AB1EE041A80EE810A7047F4
:102C20006402002021F00042A2F16052B2F5801F40
:102C300001F0004328BFD2F17F6C0BD95FEA001C82
:102C400043EAC20242EB507018BF704728BF20F021
:102C500001007047B2F5801FBCBF184670474FEAAD
:102C6000410C1CF5001F02D2084600F01EBC70B5D6
:102C700000F0CCFA00000089FFF7F6BF4FF00040EB
:102C8000A0F580007047000010B591EA030F48BF1F
:102C900083F0004300F12283841A71EB030C05D208
:102CA000121943EB0C03001B61EB0C01DFF824E16C
:102CB0004FEA1154A4EB135C1EEA430F18BF9EEABF
:102CC000445F73D023EA0E03DCF1200E21EA0451A5
:102CD00043F4801332D322FA0CFE10EB0E0023FAD9
:102CE0000CFE41EB0E01CCF1200E03FA0EFE10EBB0
:102CF0000E0051F10001B1F5801FCCF1200E32D24F
:102D000001EB045112FA0EF2BDE8104058BF7047B3
:102D1000401C38BF5FEA420218BF7047002814BF4A
:102D200020F0010041F100014FEA410313F5001FBB
:102D300038BF7047A1F1C04100F0B6BA012A43EB99
:102D40000302ACF1200CDCF11F0E32BF4FF0000E7D
:102D500023FA0CF310EB030041EB0451B4EB115FC9
:102D6000D0D0A1EB045101F5801149085FEA300091
:102D700001EB04510ED350F1000038BF12FA0EFEE1
:102D800008D1BDE81040C9E7401C38BF5FEA4202E5
:102D9000CAD1C3E7BDE810404FEA410313F5001F55
:102DA00038BF7047A1F1C04100F07EBA9EEA445F8F
:102DB00008D011EA5E0FBDE8104004BF01F00041E9
:102DC00000207047BDE8104070B500F01FFA00BF4A
:102DD00064FBBE3E0000E0FF2DE9C04130B4DFF8E7
:102DE000A0C23CEA111418BF3CEA131400F0EC80B6
:102DF00081EA03051CEA111444EAD57418BF1CEAE1
:102E0000131500F0C780A4EB05044FF0004545EA18
:102E1000C12145EAC32341EA505143EA525304F128
:102E20007F74994204F500344FEAC0204FEAC22271
:102E300008BF904200F09C804FEA13650FF24016E5
:102E4000765D4FEA134506FB05F7C7F1807706FB71
:102E500007F74FEAD737A7FB03687642C8F58038F3
:102E6000A7FB06CE38BFA8F1010807FB08E64FF024
:102E7000000EA6FB028CE6FB03CEDCF1000CCEF1CB
:102E8000004E38BFAEF1010EA6FB0C584FF0000704
:102E90004FF00005E6FB0E87A1FB08C6A0FB07CE9E
:102EA00016EB0E0645F10005E1FB076515F1E04E56
:102EB0007EBFA4F580345FEA46066D4116F18007B7
:102EC00045F100054FEA17274FEA066647EA05670E
:102ED000A6F1DE46B6F1805F4FEA15251FD93846C8
:102EE00024F0010C05EBC471BCF1FE6F01EB0C1179
:102EF00002D8F0BCBDE8008124425CBF01F5801E11
:102F00009EEAC47F02D4F0BCBDE80081244238D4DC
:102F1000F0BCA1F1C041BDE8004100F0C5B94FEAE5
:102F2000D22242EA43524FEAD323A7FB02864FEA5A
:102F3000D02040EA415007FB03661EEA0E0F4FEA1D
:102F4000D12105FB026658BFA6EB0056B6EB005632
:102F50004FEA520E4EEAC37E18EB0E0E56EB530E9E
:102F6000BDD518EB02085E417F1C55F10005B6E7A0
:102F70004FF480154FF000074FF000064FF00008A7
:102F8000ADE7F0BC4FF0000001F1C04101F000419D
:102F9000BDE8008111EA0C1F0CEA131500D00CE00B
:102FA00013EA0C1F00F025804FF00000F0BC81EA0E
:102FB000030101F00041BDE80081F0BCBDE8004123
:102FC00081EA030100F070B9F0BCBDE8004170B5C2
:102FD00000F01CF9097EFC3E00F007B881EA03010D
:102FE0004FF0000001F00041704781EA030100F05A
:102FF0005BB9F0BCBDE800414FF0000021497047CB
:10300000FFFDFBF9F7F5F4F2F0EEEDEBE9E8E6E4AD
:10301000E3E1E0DEDDDBDAD8D7D5D4D3D1D0CFCD34
:10302000CCCBCAC8C7C6C5C4C2C1C0BFBEBDBCBB6D
:10303000BAB9B8B7B6B5B4B3B2B1B0AFAEADACAB68
:10304000AAA9A8A8A7A6A5A4A3A3A2A1A09F9F9E42
:103050009D9C9C9B9A9999989797969595949393F4
:10306000929191908F8F8E8E8D8C8C8B8B8A89898B
:10307000888887878685858484838382828181800E
:103080000000FF070000F87F10F0004248BF4042F8
:10309000B0FA80F310FA03F10AD0C3F11D0303F56F
:1030A00080634FEA415002EB035202EBD12170479B
:1030B0004FF0000070470000DFF848C170B51CEA0F
:1030C000111E1EBF1CEA13159EEA0C0F95EA0C0F89
:1030D00000F06F8081EA030423EA4C134EEAD47EA9
:1030E00021EA4C1141F4801143F48013AE44A1FB5A
:1030F000024CA0FB0365AEF17F7E361955EB0C0543
:10310000A1FB034C4CF10003A0FB021C16EB0C06C8
:10311000654153F10003094218BF46F0010613F45C
:10312000007F0BD14FEA03314FEA0530340341EA07
:10313000155140EA16506FF003020AE04FEAC3212E
:103140004FEAC520F40241EA555140EA56506FF06B
:10315000020202EB2E4201EB025585EACE710AD043
:103160005FEA440C18BF24F0004450F1000041F124
:10317000000120EAD47040F2FE7C624500D270BDAE
:10318000A84214BF4FF080444FF04044002E08BFC7
:103190000024BEF1806FA8BFA1F1C041BDE870401E
:1031A00080F282804FF0000001F1C04101F0004147
:1031B00070479EEA0C0F0CEA131518BF95EA0C0F26
:1031C00006D04FF0000081EA030E0EF0004170BD02
:1031D00000F01CF88900013E00F007B800F009B8C3
:1031E0004FEA430C5FEA5C5C08D081EA030100F01F
:1031F0005BB84FEA410C5FEA5C5CF6D14FF000002F
:10320000014970470000FF070000F87F0EF1020E31
:103210002EF0030E5EF8046B364205D4012A43EB10
:10322000030515F5001F12D8012841EB010C1CF510
:10323000001F0CD80ED14FEAD17C15F5001F0CEB06
:103240004C0C0CF1020C08BF4CEBD37C04E04FF0AB
:10325000080C01E04FEAD37C0CEB4C0526FA05F68E
:1032600006F00706B6F1040C06D20EEB860CBDE89C
:1032700070404CF0010C6047DFE80CF0090B0202D3
:103280004FF000414FF00000A1F5002170BD19463C
:103290001046012851EB010418BFD4F5001484BF77
:1032A000002001F0004170BD0808A0F500114FEAB0
:1032B0003101704791EA030F10B581F000413FF5ED
:1032C000EBAC83F0004300F009B8000010B591EAC0
:1032D000030F48BF83F000433FF5DEAC841A71EB67
:1032E000030C07D212198CF0004C43EB0C03001BAB
:1032F00061EB0C01DFF8A4E14FEA1154A4EB135C7D
:103300001EEA430F18BF9EEA445F00F0B08023EA34
:103310006E03524221EA0451C3EB6E0338BF5B1EB9
:10332000DCF1200E25D322FA0CFE10EB0E0043FA3E
:103330000CFE41EB0E01CCF1200E03FA0EFE10EB59
:103340000E0051F10001CCF1200E29D412FA0EF238
:1033500001EB0451BDE8104058BF7047401C1CBF32
:10336000B2F1004F704700280CBF491C20F001004B
:10337000704712EB020E43EB030218BF4FF0010E31
:103380004EEA4202ACF1200CDCF11E0E54D943FA95
:103390000CFE10EB0E0051F1FF31CCF11E0ED5D515
:1033A0000EF1010E12FA0EFE404141EB010101EB5C
:1033B000445C5FEA5C5C10D910EBDE7001EB0451F9
:1033C00038BFBEF1004FBDE8104018BF704700285D
:1033D0000CBF491C20F00100704730D24FEAD42CBA
:1033E00011F5001124F400641BD0B1FA81F20B3AFC
:1033F000A41AA41ED2F12003914030FA03F319431A
:10340000904001EBCC71002C01EB0451BDE8104061
:10341000A8BF704701F1C0414FF0000001F000412A
:103420007047B0FA80F310FA03F100D110BDE41A2E
:10343000173C4805C90AE4E701EB045110BD4910E7
:1034400001EB0451BDE810404FEA300002E04FF0BC
:10345000000170474A0008BF0042F8D0B2F5001FD3
:1034600028BF704701F000414FF0000070479EEA0E
:10347000445F07D011EA5E0FBDE8104004BF002191
:1034800000207047BDE8104070B5FFF7BFFE00BFD9
:1034900040DFF63E83F00041104670470000E0FF39
:1034A0004FF04070E1EE100A7047FF2141EAD05022
:1034B000C0057047D434000800000020D40000008C
:1034C000C4010008A8350008D400002054080000FA
:1034D000E0010008000000000102030401020304EF
:1034E00006070809000000000000000000000000BE
:1034F00000000000000000000000000000000000CC
:1035000000000000000000000000000000000000BB
:1035100000000000000000000000000000000000AB
:10352000000000000000000000000000000000009B
:10353000000000000000000000000000000000008B
:10354000000000000000000000000000000000007B
:10355000000000000000000000000000000000006B
:10356000000000000000000000000000000000005B
:10357000000000000000000000000000000000004B
:10358000000000000000000000000000000000003B
:10359000000000000000000000000000000000002B
:0835A000000000000000000023
:040000050800018965
:00000001FF
