:020000040800F2
:100000008807002029020008BD120008B512000868
:10001000B9120008E3020008FB23000800000000FA
:10002000000000000000000000000000D1170008E0
:10003000DD110008000000004D130008E918000859
:10004000430200084302000843020008430200087C
:10005000430200084302000843020008430200086C
:10006000430200084302000843020008430200085C
:10007000430200084302000843020008430200084C
:100080004302000843020008430200081906000862
:10009000F903000843020008430200084302000875
:1000A000430200084302000843020008430200081C
:1000B00043020008A11A0008430200084302000896
:1000C00043020008430200084302000843020008FC
:1000D000430200086D2000084302000843020008A4
:1000E00043020008430200084302000843020008DC
:1000F00043020008430200084302000843020008CC
:1001000043020008430200084302000843020008BB
:1001100043020008430200080D1C000843020008C7
:10012000430200084302000843020008430200089B
:10013000430200084302000843020008430200088B
:10014000430200084302000843020008430200087B
:10015000430200084302000843020008430200086B
:10016000430200084302000843020008430200085B
:10017000430200084302000843020008430200084B
:10018000430200084302000800F002F800F03CF8C7
:100190000AA090E8000C82448344AAF10107DA45E2
:1001A00001D100F031F8AFF2090EBAE80F0013F0F8
:1001B000010F18BFFB1A43F001031847802300000A
:1001C000A0230000103A24BF78C878C1FAD852079B
:1001D00024BF30C830C144BF04680C6070470000C1
:1001E0000023002400250026103A28BF78C1FBD840
:1001F000520728BF30C148BF0B6070471FB502F0DF
:1002000098F91FBD10B510BD00F031F81146FFF789
:10021000F5FF02F07BF900F04FF803B4FFF7F2FFAF
:1002200003BC00F057F80000094880470948004720
:10023000FEE7FEE7FEE7FEE7FEE7FEE7FEE7FEE796
:10024000FEE7FEE704480549054A064B70470000F3
:10025000F1180008890100088801002088070020A3
:100260008803002088030020704770477047754658
:1002700000F02CF8AE4605006946534620F0070012
:10028000854618B020B5FFF7DDFFBDE820404FF0F0
:1002900000064FF000074FF000084FF0000B21F070
:1002A0000701AC46ACE8C009ACE8C009ACE8C0093D
:1002B000ACE8C0098D46704710B50446AFF3008026
:1002C0002046BDE81040FFF7A8BF00000048704777
:1002D0002801002001491820ABBEFEE726000200DD
:1002E000704700BFFEE7000000B58BB00121084653
:1002F00001F02EF80121480601F03AF809220C21FC
:100300003B4800F0B4FF09220B21394800F0AFFF51
:100310004FF4C050029002208DF80C0002A934481E
:1003200000F05DFF14208DF8040002208DF8050018
:1003300001208DF806008DF8070001A800F0C0FF2D
:1003400013208DF8040001208DF805008DF80600BB
:100350008DF8070001A800F0B3FF264800F0C2F9AD
:1003600008A800F069FD00208DF826008DF8270010
:100370008DF828008DF829008DF82A0001208DF8CD
:100380002B0000208DF822008DF8230008208DF826
:10039000240003208DF82500ADF8200008A9154899
:1003A00000F0E7FA00208DF81A008DF81B000120FC
:1003B0008DF81C000020ADF81000ADF81200ADF86B
:1003C0001400ADF81600ADF8180001208DF81D00DE
:1003D00004A800F0B1F901220221064800F0C0FA99
:1003E00001221146034800F0BBFA0BB000BD00002B
:1003F000000002400064004000B585B002217F4843
:1004000000F01EFA002839D002217C4800F016F9CD
:100410006A460021794800F036FB9DF80800002864
:100420002CD19DF808000028FAD19DF80A00082870
:10043000F6D100981B2822D19DF80C009DF80B10D6
:1004400040EA012000B26E4908809DF80E109DF828
:100450000D0041EA002000B26A4908809DF80F00B3
:1004600001069DF8100041EA00419DF8110041EAA3
:1004700000209DF81210084363490860BCE0009812
:100480002B2822D19DF80C009DF80B1040EA01208A
:1004900000B25B4948809DF80E109DF80D0041EABE
:1004A000002000B2574948809DF80F0001069DF8D2
:1004B000100041EA00419DF8110041EA00209DF83A
:1004C000121008435049486096E000983B2822D11A
:1004D0009DF80C009DF80B1040EA012000B248493D
:1004E00088809DF80E109DF80D0041EA002000B2B2
:1004F000444988809DF80F0001069DF8100041EAEC
:1005000000419DF8110041EA00209DF812100843B7
:100510003D49886070E000984B2822D19DF80C007E
:100520009DF80B1040EA012000B23549C8809DF8C3
:100530000E109DF80D0041EA002000B23149C8803C
:100540009DF80F0001069DF8100041EA00419DF85A
:10055000110041EA00209DF8121008432A49C860A2
:100560004AE000981F2803D101202849087043E081
:1005700000982F2803D10120244948703CE00098BE
:100580003F2803D101202149887035E000984F2889
:1005900003D101201D49C8702EE000981C2808D105
:1005A0009DF80B001A4908709DF80C001949087055
:1005B00022E000982C2808D19DF80B0014494870BF
:1005C0009DF80C001349487016E000983C2808D1AB
:1005D0009DF80B000E4988709DF80C000D4988703D
:1005E0000AE000984C2807D19DF80B000849C87014
:1005F0009DF80C000749C87005B000BD00640040BC
:100600002A00002032000020500000203A00002084
:100610003E0000204200002010B50121054800F0F6
:100620000FF930B10121034800F008F80120024918
:10063000087010BD0064004028000020B1F5007F64
:100640003AD00FDC202928D006DC01291CD004294F
:100650001DD0082940D11DE0402921D0B1F5807F6F
:100660003AD126E0B1F5004F31D006DCB1F5806F0C
:1006700025D0B1F5006F2FD124E0B1F5803F12D025
:10068000B1F5003F28D111E0154A826025E008222B
:10069000C26022E01022C2601FE0082202611CE05A
:1006A0001022026119E00822426016E01022426026
:1006B00013E00422426010E0042242600DE00422B4
:1006C00042600AE0002282610422426005E00022CA
:1006D00082610422426000E000BF00BF704700005A
:1006E0000101010010B504460B48844209D10121E3
:1006F000480600F04DFE00214FF0007000F048FE6B
:1007000008E00121880600F043FE00214FF08060E0
:1007100000F03EFE10BD00000064004010B5002156
:1007200006E0282200BF131EA2F10102FBD1491CE2
:100730008142F6D310BD000010B50021837A01225A
:1007400002FA03F13D4A126842F001023B4B1A6083
:100750003A4A1C3212688A43384B1C331A60027BB7
:10076000CAB9364A0C3212688A43344B0C331A60C9
:100770004288C38842EA0343304A4032847A42F8CE
:1007800034300288838842EA03432C4A4032847A18
:1007900002EBC4025360027B012A19D1274A0C32B2
:1007A00012680A43254B0C331A604288038842EAD8
:1007B0000343224A4032847A42F83430C288838824
:1007C00042EA03431D4A4032847A02EBC40253607A
:1007D000C27A3AB9194A121D12688A43174B1B1D77
:1007E0001A6006E0154A121D12680A43134B1B1DBE
:1007F0001A60028932B9114A143212688A430F4BC7
:1008000014331A600289012A06D10C4A1432126884
:100810000A430A4B14331A60427B012A06D1074A65
:100820001C3212680A43054B1C331A60034A1268D3
:1008300022F00102014B1A6010BD0000006600406A
:1008400070B504460D46002660692840002871D026
:10085000B5F5807F5CD010DC082D35D006DC012D8D
:1008600020D0022D24D0042D72D127E0102D31D0BC
:10087000202D35D0402D6BD138E0B5F5004F60D03C
:1008800009DCB5F5007F49D0B5F5806F4CD0B5F5E2
:10089000006F5DD14FE0B5F5803F2DD0B5F5003F3D
:1008A00056D12FE0A0682D4900F069FB064651E0C3
:1008B000E068032100F063FB06464BE0E068082196
:1008C00000F05DFB064645E0E068102100F057FBB4
:1008D00006463FE02069032100F051FB064639E05F
:1008E0002069082100F04BFB064633E02069102107
:1008F00000F045FB06462DE06068082100F03FFB54
:10090000064627E06068102100F039FB064621E02A
:10091000A069012100F033FB06461BE0A06902211B
:1009200000F02DFB064615E0A069042100F027FB2E
:1009300006460FE00FE0A069702100F020FB06469C
:1009400008E06068042100F01AFB064602E0FFE7B9
:10095000002600BF00E00026304670BD0101010006
:100960001AB143690B43436102E043698B4343611E
:10097000704730B5024600200023146824F00204BA
:100980001460146844F00104146000E05B1C5468B7
:1009900004F001041CB94FF6FF74A342F6D1546869
:1009A00004F001040CB900206CE08C79012C04D116
:1009B000146844F08004146003E0146824F0800498
:1009C0001460CC79012C04D1146844F04004146004
:1009D00003E0146824F0400414600C7A012C04D164
:1009E000146844F02004146003E0146824F0200428
:1009F00014604C7A012C04D1146844F01004146083
:100A000003E0146824F0100414608C7A012C04D1E3
:100A1000146844F00804146003E0146824F0080427
:100A20001460CC7A012C04D1146844F004041460DE
:100A300003E0146824F0040414608C78A407CD78D3
:100A400044EA05640D7944EA05444D7944EA0554C5
:100A50000D886D1E2C43D461146824F001041460C9
:100A6000002300E05B1C546804F001041CB14FF645
:100A7000FF74A342F6D1546804F001040CB10020C5
:100A800000E0012030BD10B500F5D87303EB011371
:100A90001B6803F004031372137A53B900F5D8737B
:100AA00003EB01131B6840F2FF7404EA5353136015
:100AB00009E000F5D87303EB01131B686FF0604485
:100AC00004EAD303536000F5D87303EB01131B68EA
:100AD00003F00203537200F5D87303EB01135B6854
:100AE00003F00F03937200F5D87303EB01135B68F7
:100AF0001B0AD37400F5D87303EB01139B68D37200
:100B000000F5D87303EB01139B681C0A147300F5FE
:100B1000D87303EB01139B681C0C547300F5D87356
:100B200003EB01139B681B0E937300F5D87303EB63
:100B30000113DB68D37300F5D87303EB0113DB6893
:100B40001C0A147400F5D87303EB0113DB681C0C4A
:100B5000547400F5D87303EB0113DB681B0E937418
:100B600021B9C36843F02003C36003E0036943F085
:100B70002003036110BD00002DE9F04186B004465A
:100B80000D46174698460A2600208DF80C008DF871
:100B90000D0008208DF80E00072C06DC0F2D04DC5C
:100BA00046EA042646EA051602E006B0BDE8F081F2
:100BB00001968DF80F708DF8108055218DF8111069
:100BC0008DF812108DF813108DF814108DF8151083
:100BD0008DF8161000200F49087001A90E4800F08A
:100BE0003BF900200D4908600CE00120FFF796FD5D
:100BF0000A480068401C09490860084600686428E3
:100C000000D903E0034800780028EED000BF00BF01
:100C1000CBE70000280000200064004024000020F2
:100C2000F0B585B004460D461746012600208DF824
:100C300008008DF8090008208DF80A00072C06DC52
:100C40000F2D04DC46EA042646EA051601E005B04D
:100C5000F0BD00968DF80B7055218DF80C108DF8B5
:100C60000D108DF80E108DF80F108DF810108DF8F6
:100C700011108DF8121000200E49087069460E48B8
:100C800000F0EAF800200D4908600CE00120FFF7B1
:100C900045FD0A480068401C08490860084600688D
:100CA000642800D903E0034800780028EED000BF94
:100CB00000BFCCE728000020006400402400002092
:100CC00070B586B004460D46002600208DF80C0055
:100CD0008DF80D0008208DF80E00072C06DC0F2D76
:100CE00004DC46EA042646EA051601E006B070BDBB
:100CF000019655208DF80F0055218DF810108DF8B4
:100D000011108DF812108DF813108DF814108DF845
:100D100015108DF8161000200E49087001A90E4814
:100D200000F09AF800200D4908600CE00120FFF760
:100D3000F5FC0A480068401C08490860084600683D
:100D4000642800D903E0034800780028EED000BFF3
:100D500000BFCBE7280000200064004024000020F2
:100D60002DE9F04186B005460E4614461F464FF069
:100D7000040800208DF80C008DF80D0008208DF877
:100D80000E00072D06DC0F2E04DC48EA052848EA91
:100D9000061802E006B0BDE8F081CDF8048041F20B
:100DA0008830844201DD044603E01F48844200DAB3
:100DB0000446002C05DA201E01DB014600E041421A
:100DC0000CB2200A8DF80F008DF81040390A8DF80A
:100DD00011108DF8127055218DF813108DF8141024
:100DE0008DF815108DF8161000201049087001A913
:100DF0000F4800F031F800200E4908600CE0012097
:100E0000FFF78CFC0B480068401C0A490860084644
:100E10000068642800D903E0044800780028EED078
:100E200000BF00BFB6E7000078ECFFFF28000020FD
:100E3000006400402400002000218171C171017212
:100E400041728172C1728170C170032101710221EE
:100E5000417101210180704710B50246002093685E
:100E600003F08063B3F1806F00D110E0936803F06A
:100E70000063B3F1006F01D1012008E0936803F033
:100E80008053B3F1805F01D1022000E004200428E8
:100E900074D002F5C07303EB00131B6803F0010468
:100EA00002F5C07303EB00131C600B7A7BB94B7A1D
:100EB0000C8843EA445302F5C07404EB0014246820
:100EC000234302F5C07404EB0014236010E00B7A96
:100ED0004C6843EAC4034C7A234302F5C07404EB24
:100EE00000142468234302F5C07404EB001423604B
:100EF0008B7A03F00F038B7202F5C07303EB0013C0
:100F00005B6823F00F0402F5C07303EB00135C6011
:100F100002F5C07303EB00135B688C7A234302F580
:100F2000C07404EB001463608B7B1C064B7B44EAAB
:100F300003440B7B44EA0323CC7A234302F5C074B9
:100F400004EB0014A3608B7C1C064B7C44EA034436
:100F50000B7C44EA0323CC7B234302F5C07404EBEF
:100F60000014E36002F5C07303EB00131B6843F049
:100F7000010402F5C07303EB00131C6010BD0246B0
:100F8000002002EA01030BB1012000E000207047BD
:100F90000246094B9A4201D2084801E0064810383F
:100FA00001F000531BB1064B0B40C36002E0044B41
:100FB0000B408360704700001064024000600240F4
:100FC0007D0F7D0F21B1026842F00102026003E053
:100FD000026822F00102026070470000016821F0FF
:100FE000010101600021016041608160C160016117
:100FF000212141614A49884204D13D21484A103AA1
:1010000091608CE046491831884205D14FF47461F3
:10101000434A103A916082E041493031884205D11B
:101020004FF474113E4A103A916078E03C494831DF
:10103000884205D14FF07461394A103A91606EE0F0
:1010400037496031884204D13649354A103AD16077
:1010500065E033497831884204D13349304A103A47
:10106000D1605CE02E499031884204D12F492C4A4E
:10107000103AD16053E02A49A831884205D14FF097
:101080003D51274A103AD16049E02949884204D1AC
:101090003D21274A083A116041E02549183188422C
:1010A00005D14FF47461224A083A116037E02049B3
:1010B0003031884205D14FF474111D4A083A11604D
:1010C0002DE01B494831884205D14FF07461184A20
:1010D000083A116023E016496031884204D1114971
:1010E000134A121F11601AE011497831884204D165
:1010F0000D490F4A121F116011E00D4990318842CD
:1011000004D10A490A4A121F116008E00849A831AF
:10111000884204D14FF03D51054A121F11607047BB
:10112000106002403D000020400F002000003D20E4
:101130001064024021B1026842F48022026003E0A0
:10114000026822F480220260704722B1036843F4EF
:101150000023036003E0036823F4002303600161BC
:1011600070470146486880B27047014600200A680F
:1011700002F400220AB1012000E0002070470000C4
:1011800010B500220268134B1A40CC680B68234349
:101190004C6923438C692343CC6923430C6A234362
:1011A0004C6A23438C6A23434C6B23438C6B23434D
:1011B0001A430260426922F00702D1E90B3423434B
:1011C0001A4342610B6943604B6883608B68C3605C
:1011D00010BD00003F801CF0416070477047F0B5C3
:1011E0000A4600210023002400BF3DE0012505FA46
:1011F00001F3156805EA03049C4234D105684F00E9
:101200000326BE40B543056015794E00B54006681B
:10121000354305601579012D02D01579022D16D1BF
:1012200085684F000326BE40B543856055794E0062
:10123000B540866835438560456801268E40B543D4
:101240004560456896798E40B6B235434560C568BD
:101250004F000326BE40B543C560D5794E00B5406A
:10126000C6683543C560491C1029BFD3F0BDF0B531
:10127000002300244D07ED0E02FA05F3CE1000F115
:10128000200555F826504E07F70E0F26BE40B543F1
:10129000CF1000F1200646F82750CE1000F12005AF
:1012A00055F8265045EA0304CE1000F1200545F814
:1012B0002640F0BD00BFFEE700BFFEE7704700001C
:1012C00070B5002100230F22C4781CB3174C24688A
:1012D00004F4E064C4F5E064C4F30721C1F104043C
:1012E000E3B20A4144789C40E1B28478144021433F
:1012F0000C07210E0E4C05786155047804F01F058B
:101300000124AC4005786D11AD0005F1E025C5F86C
:10131000004109E0047804F01F050124AC40054DAC
:101320000678761145F8264070BD00000CED00E00F
:1013300000E400E080E100E002490143024A11605C
:10134000704700000000FA050CED00E07047000057
:1013500029B1064A12680243044B1A6004E0034AAA
:1013600012688243014B1A60704700003038024017
:1013700029B1064A12680243044B1A6004E0034A8A
:1013800012688243014B1A607047000040380240E7
:1013900029B1064A12680243044B1A6004E0034A6A
:1013A00012688243014B1A607047000020380240E7
:1013B00029B1064A12680243044B1A6004E0034A4A
:1013C00012688243014B1A607047000044380240A3
:1013D00029B1064A12680243044B1A6004E0034A2A
:1013E00012688243014B1A607047000024380240A3
:1013F000F0B5002100220024022500260223324FEE
:101400003F6807F00C0121B1042905D0082937D124
:1014100005E02E4F076036E02D4F076033E02A4F7E
:101420003F1F3F68C7F38056274F3F1F3F6807F0B5
:101430003F036EB1264FB7FBF3F7DFF88CC0ACF17A
:10144000040CDCF800C0CCF3881C07FB0CF40CE0A7
:101450001E4FB7FBF3F7DFF870C0ACF1040CDCF8FB
:1014600000C0CCF3881C07FB0CF4174F3F1F3F68EC
:10147000C7F301477F1C7D00B4FBF5F7076002E06E
:10148000124F076000BF00BF0F4F3F6807F0F00129
:101490000909104F7A5C0768D74047600A4F3F68D8
:1014A00007F4E051890A0B4F7A5C4768D7408760A0
:1014B000054F3F6807F46041490B064F7A5C476867
:1014C000D740C760F0BD0000083802400024F40097
:1014D00000127A000000002070B590B004460E465D
:1014E000154601214B48FFF733FF01211020FFF77C
:1014F0005FFF01211020FFF76BFF00211020FFF795
:1015000067FF07220A214448FFF7B1FE4FF48060CD
:101510000E9002208DF83C0000208DF83E00032044
:101520008DF83D0000208DF83F000EA93A48FFF7E6
:1015300056FE3A4800F02AFE39480A900020ADF8DD
:101540002C00ADF82E004FF48060ADF83000042080
:10155000ADF832000020ADF834000AA92F4800F0A1
:10156000DDFE012240212D4800F007FE10212B480E
:1015700000F0EEFD012240F22441284800F0A8FED0
:101580000121264800F0EDFD25208DF83C000220C9
:101590008DF83D0000208DF83E0001208DF83F00C1
:1015A0000FA8FFF78DFE1F48FFF718FD4FF00060F2
:1015B00001901A48001D02900394002004900595A4
:1015C00006904FF4806007900020089009904FF437
:1015D00080700A904FF440300B9000200C900D90DA
:1015E0000E900F9001A90F48FFF7CAFD0022314667
:1015F0000C48FFF7AAFD01210A48FFF79BFD0021D7
:101600000848FFF7DFFC01210648FFF7DBFC10B0BC
:1016100070BD0000010040000000024000100140C9
:10162000A08601004064024010B524220249A1F1C5
:101630002400FFF751FF10BDD200002042788378CC
:1016400042EA0322C2F30A020A808278D210C378E7
:1016500042EA4312C2F30A024A80C2789211037925
:1016600042EA8302437942EA8322C2F30A028A8071
:1016700042795210837942EAC312C2F30A02CA8045
:10168000027B437B42EA0322C2F30A020A81427BC5
:10169000D210837B42EA4312C2F30A024A81827962
:1016A0001211C37942EA0312C2F30A02474B1A80AD
:1016B000C279D211037A42EA4302437A42EA4322D0
:1016C000C2F30A02414B5A80427A9210837A42EA6C
:1016D0008312C2F30A023D4B9A80827A5211C37A76
:1016E00042EAC302394BDA801A461288B2F5806F9B
:1016F00002DA00228A8101E002228A81334A52887A
:10170000B2F5167F04DA002301F10C02CB8112E05E
:101710002E4A5288B2F5167F09DD2C4A5288B2F55E
:10172000AF6F04DA012301F10C02CB8103E0022345
:1017300001F10C02CB81254A9288B2F5167F04DABA
:10174000002301F10C020B8212E0204A9288B2F5CC
:10175000167F09DD1D4A9288B2F5AF6F04DA0123C6
:1017600001F10C020B8203E0022301F10C020B8257
:10177000164AD288B2F5806F04DA002301F10C0218
:101780004B8203E0022301F10C024B820A88A2F58E
:10179000806212B20A804A88A2F5806212B24A8040
:1017A0008A88A2F5806212B28A80CA88A2F5806215
:1017B00012B2CA800A89A2F5806212B20A814A89ED
:1017C000A2F5806212B24A817047000046000020F4
:1017D000704700000CB5002001900090344800686C
:1017E00040F480303249086000BF3148006800F49E
:1017F000003000900198401C0190009818B90198A1
:10180000B0F5A04FF1D12A48006800F4003010B1C3
:101810000120009001E0002000900098012846D1AE
:1018200023484030006840F0805021494031086032
:101830002048006840F440401E4908601C480830B9
:1018400000681B49083108600846006840F4004001
:1018500008600846006840F4A05008601648091F58
:101860000860081F006840F08070091F086000BF12
:101870000F48006800F000700028F9D040F20570B1
:101880000E4908600A480830006820F00300084943
:10189000083108600846006840F00200086000BF98
:1018A00003480830006800F00C000828F8D10CBD8F
:1018B000003802400070004008544007003C0240DD
:1018C000042808D14FF0E021096941F004014FF0EC
:1018D000E022116107E04FF0E021096921F00401E5
:1018E0004FF0E0221161704710B500F0B3FB10BD5E
:1018F00010B51548006840F470001349086013489B
:10190000006840F001001149086000200F490831CB
:1019100008600E4800680E4908400C4908600D48F0
:10192000091D0860081F006820F48020091F086056
:10193000002006490C310860FFF74CFF4FF00060B3
:1019400001498039086010BD88ED00E00038024090
:10195000FFFFF6FE1030002410B5B42000F050FD5B
:101960004FF4A060FFF7E8FCFFF75EFE00F0CAFD51
:101970001A490860FEF7B8FC4FF4FA7000F05AFDFF
:1019800000210846FFF79CF94FF4FA7000F052FD71
:1019900000230A2201211846FFF7EEF8C82000F0C4
:1019A00065FD00230A2202211846FFF7E5F8C8204A
:1019B00000F05CFD032200210846FFF731F94FF4E7
:1019C000FA7000F037FD532140F2E73000F0B0F834
:1019D000532140F2E73000F061F910BD14000020FF
:1019E0007047000010B524480068B0F9020000EE0E
:1019F000900AF8EEE00AB0EE600A9FED202ADFEDD3
:101A0000201A9FED201ADFED200A00F083FDBDEEC5
:101A1000C00A10EE100A01B21C4801821648006884
:101A2000B0F9040000EE900AF8EEE00AB0EE600AA9
:101A30009FED122ADFED121A9FED121ADFED120A46
:101A400000F068FDBDEEC00A10EE100A01B20F48AA
:101A50000185B0F9103041F2883201210020FFF7F2
:101A60007FF90A48B0F9283041F28832022100207B
:101A7000FFF776F910BD0000140000200080BB4580
:101A80000080BBC500C04344000044C4F8000020EF
:101A9000704770477047704770477047704770478E
:101AA00010B50121204800F019FA00283BD001218F
:101AB0001D4800F03BF91D480088401C1B49088068
:101AC000FFF78EFF194800880A2190FBF1F201FB15
:101AD000120008B9FFF786FF14480088142190FB14
:101AE000F1F201FB120008B9FFF7D4FF0F4800889C
:101AF000642190FBF1F201FB120008B9FFF7C8FF67
:101B00000A4800884FF47A7190FBF1F201FB120051
:101B100008B9FFF7BEFF05480088B0F57A7F02D10B
:101B200000200249088010BD00040040220000206F
:101B300030B58BB005460C4601210220FFF718FC9A
:101B400001210220FFF704FC022205212D48FFF7A6
:101B50008EFB01210220FFF71BFC00210220FFF772
:101B600017FC1D208DF8140001208DF815000020B1
:101B70008DF8160001208DF8170005A8FFF7A0FBCF
:101B8000681E0990601E80B2ADF820000020ADF8FC
:101B90002200ADF82800012211461B4800F0AFF9E1
:101BA00008A9194800F014FA2020069002208DF8A8
:101BB0001C0003208DF81D0000208DF81E0002205F
:101BC0008DF81F0006A90F48FFF709FB6020ADF84C
:101BD00000000120ADF802000020ADF80C006946BD
:101BE000094800F095F90821074800F0E3F90121C0
:101BF000054800F08FF80121034800F09AF80BB077
:101C000030BD0000000402400004004010B5012176
:101C1000204800F063F900283BD001211D4800F066
:101C200085F81D480088401C1B490880FFF733FFDA
:101C3000194800880A2190FBF1F201FB120008B953
:101C4000FFF72AFF14480088142190FBF1F201FBF2
:101C5000120008B9FFF723FF0F480088642190FBAA
:101C6000F1F201FB120008B9FFF717FF0A480088DC
:101C70004FF47A7190FBF1F201FB120008B9FFF703
:101C80000DFF05480088B0F57A7F02D10020024997
:101C9000088010BD00100040200000207FB50546E0
:101CA0000C4601211020FFF763FB01211020FFF7F4
:101CB0006FFB00211020FFF76BFB154800F046F882
:101CC000681E0290601E80B2ADF804000020ADF8DE
:101CD0000600ADF80C0001A90D4800F079F90122C9
:101CE00011460B4800F00BF936208DF80000032058
:101CF0008DF8010000208DF8020001208DF803000E
:101D00006846FFF7DDFA0121014800F012F87FBDB7
:101D10000010004021B1028842F08002028004E0FD
:101D200002884FF67F731A4002807047CA430282CE
:101D3000704721B1028842F00102028004E002886B
:101D40004FF6FE731A4002807047000010B504463B
:101D50005548844208D101210846FFF739FB00218C
:101D60000120FFF735FB9DE0B4F1804F08D1012140
:101D70000846FFF70DFB00210120FFF709FB91E06A
:101D80004A48844208D101210220FFF701FB0021CB
:101D90000220FFF7FDFA85E04548844208D1012181
:101DA0000420FFF7F5FA00210420FFF7F1FA79E0AB
:101DB0004048844208D101210820FFF7E9FA0021B8
:101DC0000820FFF7E5FA6DE03B48844208D1012185
:101DD0001020FFF7DDFA00211020FFF7D9FA61E0AB
:101DE0003648844208D101212020FFF7D1FA002192
:101DF0002020FFF7CDFA55E03148844208D1012177
:101E00000220FFF7E5FA00210220FFF7E1FA49E09E
:101E10002C48844209D101210804FFF7D9FA002196
:101E20004FF48030FFF7D4FA3CE02748844209D1D0
:101E300001214804FFF7CCFA00214FF40030FFF7EE
:101E4000C7FA2FE02148844209D101218804FFF715
:101E5000BFFA00214FF48020FFF7BAFA22E01C48B5
:101E6000844208D101214020FFF792FA002140204E
:101E7000FFF78EFA16E01748844208D1012180202E
:101E8000FFF786FA00218020FFF782FA0AE0124865
:101E9000844207D101218015FFF77AFA0021A015AD
:101EA000FFF776FA10BD000000000140000400407A
:101EB00000080040000C00400010004000140040EA
:101EC000000401400040014000440140004801403E
:101ED00000180040001C00400020004030B50246C1
:101EE000002000230024158A05EA0103958905EAEC
:101EF000010413B10CB1012000E0002030BD1AB183
:101F000083890B43838102E083898B4383817047FC
:101F100070B5002400220023058C4FF6EF76354083
:101F20000584028C8388048B48F6FF752C404FF69D
:101F3000FF452C400D884FF6FF7606EA05252C4319
:101F40004FF6DF752A408D8906EA05152A434D882C
:101F500006EA05152A43154DA84202D0144DA842A1
:101F60001DD14FF67F752A40CD894FF6FF7606EAE0
:101F700005152A434FF6BF752A408D8806EA0515D8
:101F80002A434FF6FF352B404FF2FF752B400D8A49
:101F900006EA85052B434D8A06EA85052B43838097
:101FA00004838D688563028470BD000000000140D9
:101FB000000401400A460021018B4FF2FF731940D3
:101FC0004FF6FF7303EA02231943018370470000B1
:101FD00000220288184B98420ED0184B98420BD022
:101FE000B0F1804F08D0164B984205D0154B98425F
:101FF00002D0154B984204D14FF68F731A404B888C
:102000001A43124B984207D0114B984204D04FF616
:10201000FF431A400B891A4302804B68C3620B8846
:102020000385054B984202D0044B984201D18B7A2C
:1020300003860123838270470000014000040140B1
:102040000004004000080040000C00400010004068
:10205000001400400448006820B103480068401E96
:1020600001490860704700001000002010B540F2E0
:102070002551314800F002F918B12F4800F0B8F9A5
:1020800059E040F224412C4800F0F8F8002852D0E2
:10209000294800F0ADF92948FFF767F828BB00216F
:1020A0002648FEF78FFF2548FFF75BF8C0F12400B4
:1020B0002349088024212148FFF78EF81F48006833
:1020C00040F400201D4908601E491C48FEF760FFCF
:1020D00001211A48FEF776FF1948008819282AD1ED
:1020E00019491A48FFF7AAFA25E000211348FEF71C
:1020F00069FF1248FFF735F8C0F124001049088045
:1021000024210E48FFF768F80C48006820F40020EE
:102110000A4908600B490948FEF73AFF01210748C0
:10212000FEF750FF06480088192804D106490748E1
:102130002430FFF783FA10BD0010014040640240D4
:102140004E000020000030109A000020AE00002059
:1021500001F40072B2F5007F00D100BFCA430280D3
:10216000704721B1828942F40052828104E0828961
:102170004DF6FF731A40828170471AB1838A0B4370
:10218000838202E0838A8B438382704710B50446C2
:102190003248844208D101211020FFF719F90021AB
:1021A0001020FFF715F957E02D48844209D101218D
:1021B0004804FFF7EDF800214FF40030FFF7E8F88E
:1021C0004AE02848844209D101218804FFF7E0F859
:1021D00000214FF48020FFF7DBF83DE022488442E5
:1021E00009D10121C804FFF7D3F800214FF40020E2
:1021F000FFF7CEF830E01D48844209D101210805DF
:10220000FFF7C6F800214FF48010FFF7C1F823E074
:102210001748844208D101212020FFF7D9F8002176
:102220002020FFF7D5F817E01248844209D1012198
:102230008807FFF7ADF800214FF08040FFF7A8F8BE
:102240000AE00D48844207D101214005FFF7A0F8BC
:1022500000216005FFF79CF810BD00000010014050
:102260000044004000480040004C00400050004046
:102270000014014000780040007C004070B5024628
:10228000002400230025002040F66A16B14200D148
:1022900000BFC1F3421501F01F03012606FA03F344
:1022A000012D02D19689334006E0022D02D1168A13
:1022B000334001E0968A33400C12012606FA04F4FA
:1022C0001688344013B10CB1012000E0002070BD2D
:1022D000F0B50346002400260025002040F66A17CA
:1022E000B94200D100BF1846C1F3421401F01F06E5
:1022F000012707FA06F5012C01D10C3004E0022C6D
:1023000001D1103000E014301AB107682F43076084
:1023100002E00768AF430760F0BD00002DE9FF470A
:1023200005460E460024A14600BFA046B08900B174
:1023300000BF2C8A24F44054F08804432C82AC89DA
:1023400041F20C608443B0883189084371890843A5
:102350000443AC81AC8A24F44074B0890443AC8259
:102360006846FFF745F82048854202D01F4885425D
:1023700002D1DDF80C9001E0DDF80890A88900F4A6
:10238000004040B109EBC90000EB09103168490079
:10239000B0FBF1F707E009EBC90000EB0910316869
:1023A0008900B0FBF1F76420B7FBF0F004012009CD
:1023B000642101FB1078A88900F4004040B132206C
:1023C00000EBC800B0FBF1F000F00700044308E0A8
:1023D000322000EB08106421B0FBF1F000F00F0098
:1023E00004432C81BDE8FF87001001400014014028
:1023F00001468888C0F30800704700BFFEE7000070
:1024000010B504466FF00400FFF75AFAE11704EB29
:102410005171C1F3C701054A1170104600784FF49D
:102420007A7110FB01F00249086010BD180000200D
:102430001C00002070B504464FF4077094FBF0F0C8
:10244000C6B24FF4077094FBF0F100FB114085B267
:1024500005E04FF4077000F02FF8701EC6B2002E92
:10246000F7D115B1284600F027F870BD0146114A92
:1024700012784A434FF0E0235A6100229A611A46CB
:10248000126942F001021A6100BF4FF0E0221069A8
:1024900000F001021AB100F48032002AF5D04FF0AA
:1024A000E022126922F001024FF0E0231A610022BB
:1024B0009A617047180000200146114A12684A4389
:1024C0004FF0E0235A6100229A611A46126942F0E5
:1024D00001021A6100BF4FF0E022106900F0010212
:1024E0001AB100F48032002AF5D04FF0E0221269D0
:1024F00022F001024FF0E0231A6100229A61704736
:102500001C000020004870479A000020FFF724FAC2
:1025100000BFFEE7F0EE402A32EEE00A32EE613A0A
:1025200020EE030A71EE603A80EE233A33EE210A80
:1025300070474FF04070E1EE100A70475C250008CC
:102540000000002050000000C4010008AC25000875
:102550005000002038070000E001000800000000E3
:102560000102030401020304060708090000000039
:10257000000000000000000000000000000000005B
:10258000000000000000000000000000000000004B
:10259000000000000000000000000000000000003B
:0C25A0000000000000000000000000002F
:040000050800018965
:00000001FF
